{
    "contractName": "Videri",
    "abi": [
        {
            "inputs": [],
            "stateMutability": "nonpayable",
            "type": "constructor"
        },
        {
            "anonymous": false,
            "inputs": [
                {
                    "indexed": true,
                    "internalType": "address",
                    "name": "owner",
                    "type": "address"
                },
                {
                    "indexed": true,
                    "internalType": "address",
                    "name": "approved",
                    "type": "address"
                },
                {
                    "indexed": true,
                    "internalType": "uint256",
                    "name": "tokenId",
                    "type": "uint256"
                }
            ],
            "name": "Approval",
            "type": "event"
        },
        {
            "anonymous": false,
            "inputs": [
                {
                    "indexed": true,
                    "internalType": "address",
                    "name": "owner",
                    "type": "address"
                },
                {
                    "indexed": true,
                    "internalType": "address",
                    "name": "operator",
                    "type": "address"
                },
                {
                    "indexed": false,
                    "internalType": "bool",
                    "name": "approved",
                    "type": "bool"
                }
            ],
            "name": "ApprovalForAll",
            "type": "event"
        },
        {
            "anonymous": false,
            "inputs": [
                {
                    "indexed": false,
                    "internalType": "uint256",
                    "name": "_fromTokenId",
                    "type": "uint256"
                },
                {
                    "indexed": false,
                    "internalType": "uint256",
                    "name": "_toTokenId",
                    "type": "uint256"
                }
            ],
            "name": "BatchMetadataUpdate",
            "type": "event"
        },
        {
            "anonymous": false,
            "inputs": [
                {
                    "indexed": false,
                    "internalType": "uint256",
                    "name": "_tokenId",
                    "type": "uint256"
                }
            ],
            "name": "MetadataUpdate",
            "type": "event"
        },
        {
            "anonymous": false,
            "inputs": [
                {
                    "indexed": true,
                    "internalType": "address",
                    "name": "previousOwner",
                    "type": "address"
                },
                {
                    "indexed": true,
                    "internalType": "address",
                    "name": "newOwner",
                    "type": "address"
                }
            ],
            "name": "OwnershipTransferred",
            "type": "event"
        },
        {
            "anonymous": false,
            "inputs": [
                {
                    "indexed": true,
                    "internalType": "address",
                    "name": "from",
                    "type": "address"
                },
                {
                    "indexed": true,
                    "internalType": "address",
                    "name": "to",
                    "type": "address"
                },
                {
                    "indexed": true,
                    "internalType": "uint256",
                    "name": "tokenId",
                    "type": "uint256"
                }
            ],
            "name": "Transfer",
            "type": "event"
        },
        {
            "inputs": [
                {
                    "internalType": "uint256",
                    "name": "",
                    "type": "uint256"
                }
            ],
            "name": "_advertisements",
            "outputs": [
                {
                    "internalType": "uint256",
                    "name": "advertisementId",
                    "type": "uint256"
                },
                {
                    "internalType": "string",
                    "name": "name",
                    "type": "string"
                },
                {
                    "internalType": "address",
                    "name": "creator",
                    "type": "address"
                },
                {
                    "internalType": "string",
                    "name": "company",
                    "type": "string"
                },
                {
                    "internalType": "string",
                    "name": "contentIpfsHash",
                    "type": "string"
                },
                {
                    "internalType": "uint256",
                    "name": "numOfContentLinked",
                    "type": "uint256"
                },
                {
                    "internalType": "uint256",
                    "name": "stakedAmount",
                    "type": "uint256"
                }
            ],
            "stateMutability": "view",
            "type": "function"
        },
        {
            "inputs": [
                {
                    "internalType": "address",
                    "name": "to",
                    "type": "address"
                },
                {
                    "internalType": "uint256",
                    "name": "tokenId",
                    "type": "uint256"
                }
            ],
            "name": "approve",
            "outputs": [],
            "stateMutability": "nonpayable",
            "type": "function"
        },
        {
            "inputs": [
                {
                    "internalType": "address",
                    "name": "owner",
                    "type": "address"
                }
            ],
            "name": "balanceOf",
            "outputs": [
                {
                    "internalType": "uint256",
                    "name": "",
                    "type": "uint256"
                }
            ],
            "stateMutability": "view",
            "type": "function"
        },
        {
            "inputs": [
                {
                    "internalType": "string",
                    "name": "_name",
                    "type": "string"
                },
                {
                    "internalType": "string",
                    "name": "_company",
                    "type": "string"
                },
                {
                    "internalType": "string",
                    "name": "_contentIpfsHash",
                    "type": "string"
                },
                {
                    "internalType": "string[]",
                    "name": "_listOfKeywords",
                    "type": "string[]"
                },
                {
                    "internalType": "uint256",
                    "name": "_stakedAmount",
                    "type": "uint256"
                }
            ],
            "name": "createAdvertisement",
            "outputs": [],
            "stateMutability": "payable",
            "type": "function"
        },
        {
            "inputs": [
                {
                    "internalType": "uint256",
                    "name": "tokenId",
                    "type": "uint256"
                }
            ],
            "name": "getApproved",
            "outputs": [
                {
                    "internalType": "address",
                    "name": "",
                    "type": "address"
                }
            ],
            "stateMutability": "view",
            "type": "function"
        },
        {
            "inputs": [],
            "name": "getVideriBalance",
            "outputs": [
                {
                    "internalType": "uint256",
                    "name": "",
                    "type": "uint256"
                }
            ],
            "stateMutability": "view",
            "type": "function"
        },
        {
            "inputs": [
                {
                    "internalType": "address",
                    "name": "owner",
                    "type": "address"
                },
                {
                    "internalType": "address",
                    "name": "operator",
                    "type": "address"
                }
            ],
            "name": "isApprovedForAll",
            "outputs": [
                {
                    "internalType": "bool",
                    "name": "",
                    "type": "bool"
                }
            ],
            "stateMutability": "view",
            "type": "function"
        },
        {
            "inputs": [],
            "name": "name",
            "outputs": [
                {
                    "internalType": "string",
                    "name": "",
                    "type": "string"
                }
            ],
            "stateMutability": "view",
            "type": "function"
        },
        {
            "inputs": [],
            "name": "owner",
            "outputs": [
                {
                    "internalType": "address",
                    "name": "",
                    "type": "address"
                }
            ],
            "stateMutability": "view",
            "type": "function"
        },
        {
            "inputs": [
                {
                    "internalType": "uint256",
                    "name": "tokenId",
                    "type": "uint256"
                }
            ],
            "name": "ownerOf",
            "outputs": [
                {
                    "internalType": "address",
                    "name": "",
                    "type": "address"
                }
            ],
            "stateMutability": "view",
            "type": "function"
        },
        {
            "inputs": [],
            "name": "renounceOwnership",
            "outputs": [],
            "stateMutability": "nonpayable",
            "type": "function"
        },
        {
            "inputs": [
                {
                    "internalType": "address",
                    "name": "from",
                    "type": "address"
                },
                {
                    "internalType": "address",
                    "name": "to",
                    "type": "address"
                },
                {
                    "internalType": "uint256",
                    "name": "tokenId",
                    "type": "uint256"
                }
            ],
            "name": "safeTransferFrom",
            "outputs": [],
            "stateMutability": "nonpayable",
            "type": "function"
        },
        {
            "inputs": [
                {
                    "internalType": "address",
                    "name": "from",
                    "type": "address"
                },
                {
                    "internalType": "address",
                    "name": "to",
                    "type": "address"
                },
                {
                    "internalType": "uint256",
                    "name": "tokenId",
                    "type": "uint256"
                },
                {
                    "internalType": "bytes",
                    "name": "data",
                    "type": "bytes"
                }
            ],
            "name": "safeTransferFrom",
            "outputs": [],
            "stateMutability": "nonpayable",
            "type": "function"
        },
        {
            "inputs": [
                {
                    "internalType": "address",
                    "name": "operator",
                    "type": "address"
                },
                {
                    "internalType": "bool",
                    "name": "approved",
                    "type": "bool"
                }
            ],
            "name": "setApprovalForAll",
            "outputs": [],
            "stateMutability": "nonpayable",
            "type": "function"
        },
        {
            "inputs": [
                {
                    "internalType": "bytes4",
                    "name": "interfaceId",
                    "type": "bytes4"
                }
            ],
            "name": "supportsInterface",
            "outputs": [
                {
                    "internalType": "bool",
                    "name": "",
                    "type": "bool"
                }
            ],
            "stateMutability": "view",
            "type": "function"
        },
        {
            "inputs": [],
            "name": "symbol",
            "outputs": [
                {
                    "internalType": "string",
                    "name": "",
                    "type": "string"
                }
            ],
            "stateMutability": "view",
            "type": "function"
        },
        {
            "inputs": [
                {
                    "internalType": "uint256",
                    "name": "index",
                    "type": "uint256"
                }
            ],
            "name": "tokenByIndex",
            "outputs": [
                {
                    "internalType": "uint256",
                    "name": "",
                    "type": "uint256"
                }
            ],
            "stateMutability": "view",
            "type": "function"
        },
        {
            "inputs": [
                {
                    "internalType": "address",
                    "name": "owner",
                    "type": "address"
                },
                {
                    "internalType": "uint256",
                    "name": "index",
                    "type": "uint256"
                }
            ],
            "name": "tokenOfOwnerByIndex",
            "outputs": [
                {
                    "internalType": "uint256",
                    "name": "",
                    "type": "uint256"
                }
            ],
            "stateMutability": "view",
            "type": "function"
        },
        {
            "inputs": [
                {
                    "internalType": "uint256",
                    "name": "tokenId",
                    "type": "uint256"
                }
            ],
            "name": "tokenURI",
            "outputs": [
                {
                    "internalType": "string",
                    "name": "",
                    "type": "string"
                }
            ],
            "stateMutability": "view",
            "type": "function"
        },
        {
            "inputs": [],
            "name": "totalSupply",
            "outputs": [
                {
                    "internalType": "uint256",
                    "name": "",
                    "type": "uint256"
                }
            ],
            "stateMutability": "view",
            "type": "function"
        },
        {
            "inputs": [
                {
                    "internalType": "address",
                    "name": "from",
                    "type": "address"
                },
                {
                    "internalType": "address",
                    "name": "to",
                    "type": "address"
                },
                {
                    "internalType": "uint256",
                    "name": "tokenId",
                    "type": "uint256"
                }
            ],
            "name": "transferFrom",
            "outputs": [],
            "stateMutability": "nonpayable",
            "type": "function"
        },
        {
            "inputs": [
                {
                    "internalType": "address",
                    "name": "newOwner",
                    "type": "address"
                }
            ],
            "name": "transferOwnership",
            "outputs": [],
            "stateMutability": "nonpayable",
            "type": "function"
        },
        {
            "inputs": [
                {
                    "internalType": "address",
                    "name": "to",
                    "type": "address"
                },
                {
                    "internalType": "string",
                    "name": "uri",
                    "type": "string"
                }
            ],
            "name": "uploadVideo",
            "outputs": [],
            "stateMutability": "nonpayable",
            "type": "function"
        }
    ],
    "bytecode": "60806040523480156200001157600080fd5b506040518060400160405280601381526020017f56696465726920557365727320566964656f7300000000000000000000000000815250604051806040016040528060038152602001622b2aab60e91b8152508160009081620000759190620001a2565b506001620000848282620001a2565b505050620000a16200009b620000a760201b60201c565b620000ab565b6200026e565b3390565b600b80546001600160a01b038381166001600160a01b0319831681179093556040519116919082907f8be0079c531659141344cd1fd0a4f28419497f9722a3daafe3b4186f6b6457e090600090a35050565b634e487b7160e01b600052604160045260246000fd5b600181811c908216806200012857607f821691505b6020821081036200014957634e487b7160e01b600052602260045260246000fd5b50919050565b601f8211156200019d57600081815260208120601f850160051c81016020861015620001785750805b601f850160051c820191505b81811015620001995782815560010162000184565b5050505b505050565b81516001600160401b03811115620001be57620001be620000fd565b620001d681620001cf845462000113565b846200014f565b602080601f8311600181146200020e5760008415620001f55750858301515b600019600386901b1c1916600185901b17855562000199565b600085815260208120601f198616915b828110156200023f578886015182559484019460019091019084016200021e565b50858210156200025e5787850151600019600388901b60f8161c191681555b5050505050600190811b01905550565b6124d7806200027e6000396000f3fe6080604052600436106101405760003560e01c80636352211e116100b6578063a22cb4651161006f578063a22cb46514610376578063b88d4fde14610396578063c2ef07b9146103b6578063c87b56dd146103d6578063e985e9c5146103f6578063f2fde38b1461043f57600080fd5b80636352211e146102db57806370a08231146102fb578063715018a61461031b5780637d45ef8a146103305780638da5cb5b1461034357806395d89b411461036157600080fd5b806318160ddd1161010857806318160ddd1461022957806318c220f41461024857806323b872dd1461025b5780632f745c591461027b57806342842e0e1461029b5780634f6ccce7146102bb57600080fd5b806301ffc9a71461014557806306fdde031461017a578063081812fc1461019c578063095ea7b3146101d45780630b8a434d146101f6575b600080fd5b34801561015157600080fd5b50610165610160366004611cb7565b61045f565b60405190151581526020015b60405180910390f35b34801561018657600080fd5b5061018f610470565b6040516101719190611d24565b3480156101a857600080fd5b506101bc6101b7366004611d37565b610502565b6040516001600160a01b039091168152602001610171565b3480156101e057600080fd5b506101f46101ef366004611d6c565b610529565b005b34801561020257600080fd5b50610216610211366004611d37565b610643565b6040516101719796959493929190611d96565b34801561023557600080fd5b506008545b604051908152602001610171565b6101f4610256366004611eba565b610825565b34801561026757600080fd5b506101f4610276366004611fee565b6109f7565b34801561028757600080fd5b5061023a610296366004611d6c565b610a28565b3480156102a757600080fd5b506101f46102b6366004611fee565b610abe565b3480156102c757600080fd5b5061023a6102d6366004611d37565b610ad9565b3480156102e757600080fd5b506101bc6102f6366004611d37565b610b6c565b34801561030757600080fd5b5061023a61031636600461202a565b610bcc565b34801561032757600080fd5b506101f4610c52565b34801561033c57600080fd5b504761023a565b34801561034f57600080fd5b50600b546001600160a01b03166101bc565b34801561036d57600080fd5b5061018f610c66565b34801561038257600080fd5b506101f4610391366004612045565b610c75565b3480156103a257600080fd5b506101f46103b1366004612081565b610c84565b3480156103c257600080fd5b506101f46103d13660046120fd565b610cbc565b3480156103e257600080fd5b5061018f6103f1366004611d37565b610cf3565b34801561040257600080fd5b5061016561041136600461214b565b6001600160a01b03918216600090815260056020908152604080832093909416825291909152205460ff1690565b34801561044b57600080fd5b506101f461045a36600461202a565b610cfe565b600061046a82610d77565b92915050565b60606000805461047f9061217e565b80601f01602080910402602001604051908101604052809291908181526020018280546104ab9061217e565b80156104f85780601f106104cd576101008083540402835291602001916104f8565b820191906000526020600020905b8154815290600101906020018083116104db57829003601f168201915b5050505050905090565b600061050d82610d9c565b506000908152600460205260409020546001600160a01b031690565b600061053482610b6c565b9050806001600160a01b0316836001600160a01b0316036105a65760405162461bcd60e51b815260206004820152602160248201527f4552433732313a20617070726f76616c20746f2063757272656e74206f776e656044820152603960f91b60648201526084015b60405180910390fd5b336001600160a01b03821614806105c257506105c28133610411565b6106345760405162461bcd60e51b815260206004820152603d60248201527f4552433732313a20617070726f76652063616c6c6572206973206e6f7420746f60448201527f6b656e206f776e6572206f7220617070726f76656420666f7220616c6c000000606482015260840161059d565b61063e8383610dfb565b505050565b600f60205260009081526040902080546001820180549192916106659061217e565b80601f01602080910402602001604051908101604052809291908181526020018280546106919061217e565b80156106de5780601f106106b3576101008083540402835291602001916106de565b820191906000526020600020905b8154815290600101906020018083116106c157829003601f168201915b505050600284015460038501805494956001600160a01b039092169491935091506107089061217e565b80601f01602080910402602001604051908101604052809291908181526020018280546107349061217e565b80156107815780601f1061075657610100808354040283529160200191610781565b820191906000526020600020905b81548152906001019060200180831161076457829003601f168201915b5050505050908060040180546107969061217e565b80601f01602080910402602001604051908101604052809291908181526020018280546107c29061217e565b801561080f5780601f106107e45761010080835404028352916020019161080f565b820191906000526020600020905b8154815290600101906020018083116107f257829003601f168201915b5050505050908060070154908060080154905087565b60008551116108885760405162461bcd60e51b815260206004820152602960248201527f5468657265206d7573742062652061206e616d6520746f20796f757220616476604482015268195c9d1a5cdb595b9d60ba1b606482015260840161059d565b600081116108ec5760405162461bcd60e51b815260206004820152602b60248201527f5374616b656420616d6f756e74206d757374206265206772656174657220746860448201526a0c2dc40f4cae4de408aa8960ab1b606482015260840161059d565b8034146109615760405162461bcd60e51b815260206004820152603760248201527f56616c75652073656e74206d7573742062652073616d6520617320796f75722060448201527f737065636966696564207374616b656420616d6f756e74000000000000000000606482015260840161059d565b600d546000818152600f60205260409020908155600181016109838782612206565b506002810180546001600160a01b03191633179055600381016109a68682612206565b50600481016109b58582612206565b5082516109cb9060058301906020860190611be4565b5060006007820181905560088201839055600d8054916109ea836122dc565b9190505550505050505050565b610a013382610e69565b610a1d5760405162461bcd60e51b815260040161059d906122f5565b61063e838383610ee8565b6000610a3383610bcc565b8210610a955760405162461bcd60e51b815260206004820152602b60248201527f455243373231456e756d657261626c653a206f776e657220696e646578206f7560448201526a74206f6620626f756e647360a81b606482015260840161059d565b506001600160a01b03919091166000908152600660209081526040808320938352929052205490565b61063e83838360405180602001604052806000815250610c84565b6000610ae460085490565b8210610b475760405162461bcd60e51b815260206004820152602c60248201527f455243373231456e756d657261626c653a20676c6f62616c20696e646578206f60448201526b7574206f6620626f756e647360a01b606482015260840161059d565b60088281548110610b5a57610b5a612342565b90600052602060002001549050919050565b6000818152600260205260408120546001600160a01b03168061046a5760405162461bcd60e51b8152602060048201526018602482015277115490cdcc8c4e881a5b9d985b1a59081d1bdad95b88125160421b604482015260640161059d565b60006001600160a01b038216610c365760405162461bcd60e51b815260206004820152602960248201527f4552433732313a2061646472657373207a65726f206973206e6f7420612076616044820152683634b21037bbb732b960b91b606482015260840161059d565b506001600160a01b031660009081526003602052604090205490565b610c5a611059565b610c6460006110b3565b565b60606001805461047f9061217e565b610c80338383611105565b5050565b610c8e3383610e69565b610caa5760405162461bcd60e51b815260040161059d906122f5565b610cb6848484846111d3565b50505050565b610cc4611059565b6000610ccf600c5490565b9050610cdf600c80546001019055565b610ce98382611206565b61063e8183611220565b606061046a826112eb565b610d06611059565b6001600160a01b038116610d6b5760405162461bcd60e51b815260206004820152602660248201527f4f776e61626c653a206e6577206f776e657220697320746865207a65726f206160448201526564647265737360d01b606482015260840161059d565b610d74816110b3565b50565b60006001600160e01b03198216632483248360e11b148061046a575061046a826113f3565b6000818152600260205260409020546001600160a01b0316610d745760405162461bcd60e51b8152602060048201526018602482015277115490cdcc8c4e881a5b9d985b1a59081d1bdad95b88125160421b604482015260640161059d565b600081815260046020526040902080546001600160a01b0319166001600160a01b0384169081179091558190610e3082610b6c565b6001600160a01b03167f8c5be1e5ebec7d5bd14f71427d1e84f3dd0314c0f7b2291e5b200ac8c7c3b92560405160405180910390a45050565b600080610e7583610b6c565b9050806001600160a01b0316846001600160a01b03161480610ebc57506001600160a01b0380821660009081526005602090815260408083209388168352929052205460ff165b80610ee05750836001600160a01b0316610ed584610502565b6001600160a01b0316145b949350505050565b826001600160a01b0316610efb82610b6c565b6001600160a01b031614610f215760405162461bcd60e51b815260040161059d90612358565b6001600160a01b038216610f835760405162461bcd60e51b8152602060048201526024808201527f4552433732313a207472616e7366657220746f20746865207a65726f206164646044820152637265737360e01b606482015260840161059d565b610f908383836001611418565b826001600160a01b0316610fa382610b6c565b6001600160a01b031614610fc95760405162461bcd60e51b815260040161059d90612358565b600081815260046020908152604080832080546001600160a01b03199081169091556001600160a01b0387811680865260038552838620805460001901905590871680865283862080546001019055868652600290945282852080549092168417909155905184937fddf252ad1be2c89b69c2b068fc378daa952ba7f163c4a11628f55a4df523b3ef91a4505050565b600b546001600160a01b03163314610c645760405162461bcd60e51b815260206004820181905260248201527f4f776e61626c653a2063616c6c6572206973206e6f7420746865206f776e6572604482015260640161059d565b600b80546001600160a01b038381166001600160a01b0319831681179093556040519116919082907f8be0079c531659141344cd1fd0a4f28419497f9722a3daafe3b4186f6b6457e090600090a35050565b816001600160a01b0316836001600160a01b0316036111665760405162461bcd60e51b815260206004820152601960248201527f4552433732313a20617070726f766520746f2063616c6c657200000000000000604482015260640161059d565b6001600160a01b03838116600081815260056020908152604080832094871680845294825291829020805460ff191686151590811790915591519182527f17307eab39ab6107e8899845ad3d59bd9653f200f220920489ca2b5937696c31910160405180910390a3505050565b6111de848484610ee8565b6111ea84848484611424565b610cb65760405162461bcd60e51b815260040161059d9061239d565b610c80828260405180602001604052806000815250611525565b6000828152600260205260409020546001600160a01b031661129b5760405162461bcd60e51b815260206004820152602e60248201527f45524337323155524953746f726167653a2055524920736574206f66206e6f6e60448201526d32bc34b9ba32b73a103a37b5b2b760911b606482015260840161059d565b6000828152600a602052604090206112b38282612206565b506040518281527ff8e1a15aba9398e019f0b49df1a4fde98ee17ae345cb5f6b5e2c27f5033e8ce79060200160405180910390a15050565b60606112f682610d9c565b6000828152600a60205260408120805461130f9061217e565b80601f016020809104026020016040519081016040528092919081815260200182805461133b9061217e565b80156113885780601f1061135d57610100808354040283529160200191611388565b820191906000526020600020905b81548152906001019060200180831161136b57829003601f168201915b5050505050905060006113a660408051602081019091526000815290565b905080516000036113b8575092915050565b8151156113ea5780826040516020016113d29291906123ef565b60405160208183030381529060405292505050919050565b610ee084611558565b60006001600160e01b0319821663780e9d6360e01b148061046a575061046a826115cc565b610cb68484848461161c565b60006001600160a01b0384163b1561151a57604051630a85bd0160e11b81526001600160a01b0385169063150b7a029061146890339089908890889060040161241e565b6020604051808303816000875af19250505080156114a3575060408051601f3d908101601f191682019092526114a09181019061245b565b60015b611500573d8080156114d1576040519150601f19603f3d011682016040523d82523d6000602084013e6114d6565b606091505b5080516000036114f85760405162461bcd60e51b815260040161059d9061239d565b805181602001fd5b6001600160e01b031916630a85bd0160e11b149050610ee0565b506001949350505050565b61152f8383611750565b61153c6000848484611424565b61063e5760405162461bcd60e51b815260040161059d9061239d565b606061156382610d9c565b600061157a60408051602081019091526000815290565b9050600081511161159a57604051806020016040528060008152506115c5565b806115a4846118e9565b6040516020016115b59291906123ef565b6040516020818303038152906040525b9392505050565b60006001600160e01b031982166380ac58cd60e01b14806115fd57506001600160e01b03198216635b5e139f60e01b145b8061046a57506301ffc9a760e01b6001600160e01b031983161461046a565b600181111561168b5760405162461bcd60e51b815260206004820152603560248201527f455243373231456e756d657261626c653a20636f6e7365637574697665207472604482015274185b9cd9995c9cc81b9bdd081cdd5c1c1bdc9d1959605a1b606482015260840161059d565b816001600160a01b0385166116e7576116e281600880546000838152600960205260408120829055600182018355919091527ff3f7a9fe364faab93b216da50a3214154f22a0a2b415b23a84c8169e8b636ee30155565b61170a565b836001600160a01b0316856001600160a01b03161461170a5761170a858261197c565b6001600160a01b0384166117265761172181611a19565b611749565b846001600160a01b0316846001600160a01b031614611749576117498482611ac8565b5050505050565b6001600160a01b0382166117a65760405162461bcd60e51b815260206004820181905260248201527f4552433732313a206d696e7420746f20746865207a65726f2061646472657373604482015260640161059d565b6000818152600260205260409020546001600160a01b03161561180b5760405162461bcd60e51b815260206004820152601c60248201527f4552433732313a20746f6b656e20616c7265616479206d696e74656400000000604482015260640161059d565b611819600083836001611418565b6000818152600260205260409020546001600160a01b03161561187e5760405162461bcd60e51b815260206004820152601c60248201527f4552433732313a20746f6b656e20616c7265616479206d696e74656400000000604482015260640161059d565b6001600160a01b038216600081815260036020908152604080832080546001019055848352600290915280822080546001600160a01b0319168417905551839291907fddf252ad1be2c89b69c2b068fc378daa952ba7f163c4a11628f55a4df523b3ef908290a45050565b606060006118f683611b0c565b600101905060008167ffffffffffffffff81111561191657611916611dfb565b6040519080825280601f01601f191660200182016040528015611940576020820181803683370190505b5090508181016020015b600019016f181899199a1a9b1b9c1cb0b131b232b360811b600a86061a8153600a850494508461194a57509392505050565b6000600161198984610bcc565b6119939190612478565b6000838152600760205260409020549091508082146119e6576001600160a01b03841660009081526006602090815260408083208584528252808320548484528184208190558352600790915290208190555b5060009182526007602090815260408084208490556001600160a01b039094168352600681528383209183525290812055565b600854600090611a2b90600190612478565b60008381526009602052604081205460088054939450909284908110611a5357611a53612342565b906000526020600020015490508060088381548110611a7457611a74612342565b6000918252602080832090910192909255828152600990915260408082208490558582528120556008805480611aac57611aac61248b565b6001900381819060005260206000200160009055905550505050565b6000611ad383610bcc565b6001600160a01b039093166000908152600660209081526040808320868452825280832085905593825260079052919091209190915550565b60008072184f03e93ff9f4daa797ed6e38ed64bf6a1f0160401b8310611b4b5772184f03e93ff9f4daa797ed6e38ed64bf6a1f0160401b830492506040015b6d04ee2d6d415b85acef81000000008310611b77576d04ee2d6d415b85acef8100000000830492506020015b662386f26fc100008310611b9557662386f26fc10000830492506010015b6305f5e1008310611bad576305f5e100830492506008015b6127108310611bc157612710830492506004015b60648310611bd3576064830492506002015b600a831061046a5760010192915050565b828054828255906000526020600020908101928215611c2a579160200282015b82811115611c2a5782518290611c1a9082612206565b5091602001919060010190611c04565b50611c36929150611c3a565b5090565b80821115611c36576000611c4e8282611c57565b50600101611c3a565b508054611c639061217e565b6000825580601f10611c73575050565b601f016020900490600052602060002090810190610d7491905b80821115611c365760008155600101611c8d565b6001600160e01b031981168114610d7457600080fd5b600060208284031215611cc957600080fd5b81356115c581611ca1565b60005b83811015611cef578181015183820152602001611cd7565b50506000910152565b60008151808452611d10816020860160208601611cd4565b601f01601f19169290920160200192915050565b6020815260006115c56020830184611cf8565b600060208284031215611d4957600080fd5b5035919050565b80356001600160a01b0381168114611d6757600080fd5b919050565b60008060408385031215611d7f57600080fd5b611d8883611d50565b946020939093013593505050565b87815260e060208201526000611daf60e0830189611cf8565b6001600160a01b03881660408401528281036060840152611dd08188611cf8565b90508281036080840152611de48187611cf8565b60a0840195909552505060c0015295945050505050565b634e487b7160e01b600052604160045260246000fd5b604051601f8201601f1916810167ffffffffffffffff81118282101715611e3a57611e3a611dfb565b604052919050565b600067ffffffffffffffff831115611e5c57611e5c611dfb565b611e6f601f8401601f1916602001611e11565b9050828152838383011115611e8357600080fd5b828260208301376000602084830101529392505050565b600082601f830112611eab57600080fd5b6115c583833560208501611e42565b600080600080600060a08688031215611ed257600080fd5b853567ffffffffffffffff80821115611eea57600080fd5b611ef689838a01611e9a565b9650602091508188013581811115611f0d57600080fd5b611f198a828b01611e9a565b965050604088013581811115611f2e57600080fd5b611f3a8a828b01611e9a565b955050606088013581811115611f4f57600080fd5b8801601f81018a13611f6057600080fd5b803582811115611f7257611f72611dfb565b8060051b611f81858201611e11565b918252828101850191858101908d841115611f9b57600080fd5b86850192505b83831015611fd757823586811115611fb95760008081fd5b611fc78f8983890101611e9a565b8352509186019190860190611fa1565b9a9d999c50979a6080013598975050505050505050565b60008060006060848603121561200357600080fd5b61200c84611d50565b925061201a60208501611d50565b9150604084013590509250925092565b60006020828403121561203c57600080fd5b6115c582611d50565b6000806040838503121561205857600080fd5b61206183611d50565b91506020830135801515811461207657600080fd5b809150509250929050565b6000806000806080858703121561209757600080fd5b6120a085611d50565b93506120ae60208601611d50565b925060408501359150606085013567ffffffffffffffff8111156120d157600080fd5b8501601f810187136120e257600080fd5b6120f187823560208401611e42565b91505092959194509250565b6000806040838503121561211057600080fd5b61211983611d50565b9150602083013567ffffffffffffffff81111561213557600080fd5b61214185828601611e9a565b9150509250929050565b6000806040838503121561215e57600080fd5b61216783611d50565b915061217560208401611d50565b90509250929050565b600181811c9082168061219257607f821691505b6020821081036121b257634e487b7160e01b600052602260045260246000fd5b50919050565b601f82111561063e57600081815260208120601f850160051c810160208610156121df5750805b601f850160051c820191505b818110156121fe578281556001016121eb565b505050505050565b815167ffffffffffffffff81111561222057612220611dfb565b6122348161222e845461217e565b846121b8565b602080601f83116001811461226957600084156122515750858301515b600019600386901b1c1916600185901b1785556121fe565b600085815260208120601f198616915b8281101561229857888601518255948401946001909101908401612279565b50858210156122b65787850151600019600388901b60f8161c191681555b5050505050600190811b01905550565b634e487b7160e01b600052601160045260246000fd5b6000600182016122ee576122ee6122c6565b5060010190565b6020808252602d908201527f4552433732313a2063616c6c6572206973206e6f7420746f6b656e206f776e6560408201526c1c881bdc88185c1c1c9bdd9959609a1b606082015260800190565b634e487b7160e01b600052603260045260246000fd5b60208082526025908201527f4552433732313a207472616e736665722066726f6d20696e636f72726563742060408201526437bbb732b960d91b606082015260800190565b60208082526032908201527f4552433732313a207472616e7366657220746f206e6f6e20455243373231526560408201527131b2b4bb32b91034b6b83632b6b2b73a32b960711b606082015260800190565b60008351612401818460208801611cd4565b835190830190612415818360208801611cd4565b01949350505050565b6001600160a01b038581168252841660208201526040810183905260806060820181905260009061245190830184611cf8565b9695505050505050565b60006020828403121561246d57600080fd5b81516115c581611ca1565b8181038181111561046a5761046a6122c6565b634e487b7160e01b600052603160045260246000fdfea2646970667358221220fd7cf2151650383a947a67af1ad6c25e848a152bd0a81bf15ab2d5758d933bad64736f6c63430008130033",
    "sourcePath": "/Users/rexanwong/Dropbox/Mac/Documents/blockchain-projects/ethglobal_waterloo_2023/blockchain/contracts/Videri.sol",
    "compiler": {
        "name": "solc",
        "version": "0.8.19+commit.7dd6d404"
    },
    "functionHashes": {
        "_advertisements(uint256)": "0b8a434d",
        "approve(address,uint256)": "095ea7b3",
        "balanceOf(address)": "70a08231",
        "createAdvertisement(string,string,string,string[],uint256)": "18c220f4",
        "getApproved(uint256)": "081812fc",
        "getVideriBalance()": "7d45ef8a",
        "isApprovedForAll(address,address)": "e985e9c5",
        "name()": "06fdde03",
        "owner()": "8da5cb5b",
        "ownerOf(uint256)": "6352211e",
        "renounceOwnership()": "715018a6",
        "safeTransferFrom(address,address,uint256)": "42842e0e",
        "safeTransferFrom(address,address,uint256,bytes)": "b88d4fde",
        "setApprovalForAll(address,bool)": "a22cb465",
        "supportsInterface(bytes4)": "01ffc9a7",
        "symbol()": "95d89b41",
        "tokenByIndex(uint256)": "4f6ccce7",
        "tokenOfOwnerByIndex(address,uint256)": "2f745c59",
        "tokenURI(uint256)": "c87b56dd",
        "totalSupply()": "18160ddd",
        "transferFrom(address,address,uint256)": "23b872dd",
        "transferOwnership(address)": "f2fde38b",
        "uploadVideo(address,string)": "c2ef07b9"
    },
    "gasEstimates": {
        "creation": {
            "codeDepositCost": "1886200",
            "executionCost": "infinite",
            "totalCost": "infinite"
        },
        "external": {
            "_advertisements(uint256)": "infinite",
            "approve(address,uint256)": "infinite",
            "balanceOf(address)": "2634",
            "createAdvertisement(string,string,string,string[],uint256)": "infinite",
            "getApproved(uint256)": "4792",
            "getVideriBalance()": "283",
            "isApprovedForAll(address,address)": "infinite",
            "name()": "infinite",
            "owner()": "2442",
            "ownerOf(uint256)": "2561",
            "renounceOwnership()": "infinite",
            "safeTransferFrom(address,address,uint256)": "infinite",
            "safeTransferFrom(address,address,uint256,bytes)": "infinite",
            "setApprovalForAll(address,bool)": "26705",
            "supportsInterface(bytes4)": "infinite",
            "symbol()": "infinite",
            "tokenByIndex(uint256)": "6848",
            "tokenOfOwnerByIndex(address,uint256)": "5019",
            "tokenURI(uint256)": "infinite",
            "totalSupply()": "2304",
            "transferFrom(address,address,uint256)": "infinite",
            "transferOwnership(address)": "28468",
            "uploadVideo(address,string)": "infinite"
        },
        "internal": {
            "_beforeTokenTransfer(address,address,uint256,uint256)": "infinite",
            "_burn(uint256)": "infinite"
        }
    }
}