{
  "_format": "hh-sol-artifact-1",
  "contractName": "Videre",
  "sourceName": "contracts/Videre.sol",
  "abi": [
    {
      "inputs": [],
      "stateMutability": "nonpayable",
      "type": "constructor"
    },
    {
      "anonymous": false,
      "inputs": [
        {
          "indexed": true,
          "internalType": "address",
          "name": "owner",
          "type": "address"
        },
        {
          "indexed": true,
          "internalType": "address",
          "name": "approved",
          "type": "address"
        },
        {
          "indexed": true,
          "internalType": "uint256",
          "name": "tokenId",
          "type": "uint256"
        }
      ],
      "name": "Approval",
      "type": "event"
    },
    {
      "anonymous": false,
      "inputs": [
        {
          "indexed": true,
          "internalType": "address",
          "name": "owner",
          "type": "address"
        },
        {
          "indexed": true,
          "internalType": "address",
          "name": "operator",
          "type": "address"
        },
        {
          "indexed": false,
          "internalType": "bool",
          "name": "approved",
          "type": "bool"
        }
      ],
      "name": "ApprovalForAll",
      "type": "event"
    },
    {
      "anonymous": false,
      "inputs": [
        {
          "indexed": false,
          "internalType": "uint256",
          "name": "_fromTokenId",
          "type": "uint256"
        },
        {
          "indexed": false,
          "internalType": "uint256",
          "name": "_toTokenId",
          "type": "uint256"
        }
      ],
      "name": "BatchMetadataUpdate",
      "type": "event"
    },
    {
      "anonymous": false,
      "inputs": [
        {
          "indexed": false,
          "internalType": "uint256",
          "name": "_tokenId",
          "type": "uint256"
        }
      ],
      "name": "MetadataUpdate",
      "type": "event"
    },
    {
      "anonymous": false,
      "inputs": [
        {
          "indexed": true,
          "internalType": "address",
          "name": "previousOwner",
          "type": "address"
        },
        {
          "indexed": true,
          "internalType": "address",
          "name": "newOwner",
          "type": "address"
        }
      ],
      "name": "OwnershipTransferred",
      "type": "event"
    },
    {
      "anonymous": false,
      "inputs": [
        {
          "indexed": true,
          "internalType": "address",
          "name": "from",
          "type": "address"
        },
        {
          "indexed": true,
          "internalType": "address",
          "name": "to",
          "type": "address"
        },
        {
          "indexed": true,
          "internalType": "uint256",
          "name": "tokenId",
          "type": "uint256"
        }
      ],
      "name": "Transfer",
      "type": "event"
    },
    {
      "inputs": [
        {
          "internalType": "uint256",
          "name": "",
          "type": "uint256"
        }
      ],
      "name": "_advertisements",
      "outputs": [
        {
          "internalType": "uint256",
          "name": "advertisementId",
          "type": "uint256"
        },
        {
          "internalType": "string",
          "name": "name",
          "type": "string"
        },
        {
          "internalType": "address",
          "name": "creator",
          "type": "address"
        },
        {
          "internalType": "string",
          "name": "contentIpfsHash",
          "type": "string"
        },
        {
          "internalType": "uint256",
          "name": "stakedAmount",
          "type": "uint256"
        }
      ],
      "stateMutability": "view",
      "type": "function"
    },
    {
      "inputs": [
        {
          "internalType": "address",
          "name": "",
          "type": "address"
        }
      ],
      "name": "_contentCreators",
      "outputs": [
        {
          "internalType": "address",
          "name": "walletAddress",
          "type": "address"
        },
        {
          "internalType": "string",
          "name": "username",
          "type": "string"
        },
        {
          "internalType": "uint256",
          "name": "totalVideoLikes",
          "type": "uint256"
        },
        {
          "internalType": "bool",
          "name": "isWorldcoinVerified",
          "type": "bool"
        },
        {
          "internalType": "bool",
          "name": "isAdvertiser",
          "type": "bool"
        },
        {
          "internalType": "bool",
          "name": "isRegistered",
          "type": "bool"
        }
      ],
      "stateMutability": "view",
      "type": "function"
    },
    {
      "inputs": [
        {
          "internalType": "uint256",
          "name": "",
          "type": "uint256"
        }
      ],
      "name": "_videos",
      "outputs": [
        {
          "internalType": "uint256",
          "name": "videoId",
          "type": "uint256"
        },
        {
          "internalType": "string",
          "name": "name",
          "type": "string"
        },
        {
          "internalType": "address",
          "name": "creator",
          "type": "address"
        },
        {
          "internalType": "uint256",
          "name": "contentTokenID",
          "type": "uint256"
        },
        {
          "internalType": "string",
          "name": "contentURI",
          "type": "string"
        },
        {
          "internalType": "string",
          "name": "contentIpfsHash",
          "type": "string"
        },
        {
          "internalType": "uint256",
          "name": "numOfLikes",
          "type": "uint256"
        },
        {
          "internalType": "uint256",
          "name": "amountOfEthCollected",
          "type": "uint256"
        }
      ],
      "stateMutability": "view",
      "type": "function"
    },
    {
      "inputs": [
        {
          "internalType": "address",
          "name": "to",
          "type": "address"
        },
        {
          "internalType": "uint256",
          "name": "tokenId",
          "type": "uint256"
        }
      ],
      "name": "approve",
      "outputs": [],
      "stateMutability": "nonpayable",
      "type": "function"
    },
    {
      "inputs": [
        {
          "internalType": "address",
          "name": "owner",
          "type": "address"
        }
      ],
      "name": "balanceOf",
      "outputs": [
        {
          "internalType": "uint256",
          "name": "",
          "type": "uint256"
        }
      ],
      "stateMutability": "view",
      "type": "function"
    },
    {
      "inputs": [
        {
          "internalType": "string",
          "name": "_name",
          "type": "string"
        },
        {
          "internalType": "string",
          "name": "_contentIpfsHash",
          "type": "string"
        },
        {
          "internalType": "string[]",
          "name": "_listOfKeywords",
          "type": "string[]"
        },
        {
          "internalType": "uint256",
          "name": "_stakedAmount",
          "type": "uint256"
        }
      ],
      "name": "createAdvertisement",
      "outputs": [],
      "stateMutability": "payable",
      "type": "function"
    },
    {
      "inputs": [
        {
          "internalType": "string",
          "name": "_name",
          "type": "string"
        },
        {
          "internalType": "string",
          "name": "_contentIpfsHash",
          "type": "string"
        },
        {
          "internalType": "string[]",
          "name": "_listOfKeywords",
          "type": "string[]"
        },
        {
          "internalType": "string",
          "name": "uri",
          "type": "string"
        }
      ],
      "name": "createVideo",
      "outputs": [],
      "stateMutability": "nonpayable",
      "type": "function"
    },
    {
      "inputs": [
        {
          "internalType": "uint256",
          "name": "_tokenId",
          "type": "uint256"
        },
        {
          "internalType": "address",
          "name": "_tokenContract",
          "type": "address"
        },
        {
          "internalType": "uint256",
          "name": "_advertisementId",
          "type": "uint256"
        },
        {
          "internalType": "uint256",
          "name": "_videoId",
          "type": "uint256"
        }
      ],
      "name": "getAdFunds",
      "outputs": [],
      "stateMutability": "payable",
      "type": "function"
    },
    {
      "inputs": [
        {
          "internalType": "uint256",
          "name": "_advertisementId",
          "type": "uint256"
        }
      ],
      "name": "getAdvertisement",
      "outputs": [
        {
          "internalType": "uint256",
          "name": "",
          "type": "uint256"
        },
        {
          "internalType": "string",
          "name": "",
          "type": "string"
        },
        {
          "internalType": "address",
          "name": "",
          "type": "address"
        },
        {
          "internalType": "string",
          "name": "",
          "type": "string"
        },
        {
          "internalType": "string[]",
          "name": "",
          "type": "string[]"
        },
        {
          "internalType": "uint256[]",
          "name": "",
          "type": "uint256[]"
        },
        {
          "internalType": "uint256",
          "name": "",
          "type": "uint256"
        }
      ],
      "stateMutability": "view",
      "type": "function"
    },
    {
      "inputs": [
        {
          "internalType": "uint256",
          "name": "tokenId",
          "type": "uint256"
        }
      ],
      "name": "getApproved",
      "outputs": [
        {
          "internalType": "address",
          "name": "",
          "type": "address"
        }
      ],
      "stateMutability": "view",
      "type": "function"
    },
    {
      "inputs": [
        {
          "internalType": "address",
          "name": "_contentCreator",
          "type": "address"
        }
      ],
      "name": "getContentCreatorInfo",
      "outputs": [
        {
          "internalType": "address",
          "name": "",
          "type": "address"
        },
        {
          "internalType": "string",
          "name": "",
          "type": "string"
        },
        {
          "internalType": "uint256",
          "name": "",
          "type": "uint256"
        },
        {
          "internalType": "bool",
          "name": "",
          "type": "bool"
        },
        {
          "internalType": "bool",
          "name": "",
          "type": "bool"
        },
        {
          "internalType": "bool",
          "name": "",
          "type": "bool"
        }
      ],
      "stateMutability": "view",
      "type": "function"
    },
    {
      "inputs": [],
      "name": "getNumbers",
      "outputs": [
        {
          "internalType": "uint256",
          "name": "",
          "type": "uint256"
        },
        {
          "internalType": "uint256",
          "name": "",
          "type": "uint256"
        },
        {
          "internalType": "uint256",
          "name": "",
          "type": "uint256"
        }
      ],
      "stateMutability": "view",
      "type": "function"
    },
    {
      "inputs": [
        {
          "internalType": "uint256",
          "name": "_videoId",
          "type": "uint256"
        }
      ],
      "name": "getVideo",
      "outputs": [
        {
          "internalType": "uint256",
          "name": "",
          "type": "uint256"
        },
        {
          "internalType": "string",
          "name": "",
          "type": "string"
        },
        {
          "internalType": "address",
          "name": "",
          "type": "address"
        },
        {
          "internalType": "string",
          "name": "",
          "type": "string"
        },
        {
          "internalType": "string[]",
          "name": "",
          "type": "string[]"
        },
        {
          "internalType": "uint256[]",
          "name": "",
          "type": "uint256[]"
        }
      ],
      "stateMutability": "view",
      "type": "function"
    },
    {
      "inputs": [
        {
          "internalType": "uint256",
          "name": "_videoId",
          "type": "uint256"
        }
      ],
      "name": "getVideoBlockchainDetails",
      "outputs": [
        {
          "internalType": "uint256",
          "name": "",
          "type": "uint256"
        },
        {
          "internalType": "string",
          "name": "",
          "type": "string"
        },
        {
          "internalType": "uint256",
          "name": "",
          "type": "uint256"
        }
      ],
      "stateMutability": "view",
      "type": "function"
    },
    {
      "inputs": [
        {
          "internalType": "uint256",
          "name": "_videoId",
          "type": "uint256"
        }
      ],
      "name": "getVideoLikesInfo",
      "outputs": [
        {
          "internalType": "uint256",
          "name": "",
          "type": "uint256"
        },
        {
          "internalType": "address[]",
          "name": "",
          "type": "address[]"
        }
      ],
      "stateMutability": "view",
      "type": "function"
    },
    {
      "inputs": [
        {
          "internalType": "address",
          "name": "owner",
          "type": "address"
        },
        {
          "internalType": "address",
          "name": "operator",
          "type": "address"
        }
      ],
      "name": "isApprovedForAll",
      "outputs": [
        {
          "internalType": "bool",
          "name": "",
          "type": "bool"
        }
      ],
      "stateMutability": "view",
      "type": "function"
    },
    {
      "inputs": [
        {
          "internalType": "uint256",
          "name": "_videoId",
          "type": "uint256"
        }
      ],
      "name": "likeVideo",
      "outputs": [],
      "stateMutability": "nonpayable",
      "type": "function"
    },
    {
      "inputs": [
        {
          "internalType": "uint256",
          "name": "_advertisementId",
          "type": "uint256"
        },
        {
          "internalType": "uint256",
          "name": "_videoId",
          "type": "uint256"
        }
      ],
      "name": "matchAdContent",
      "outputs": [],
      "stateMutability": "nonpayable",
      "type": "function"
    },
    {
      "inputs": [],
      "name": "name",
      "outputs": [
        {
          "internalType": "string",
          "name": "",
          "type": "string"
        }
      ],
      "stateMutability": "view",
      "type": "function"
    },
    {
      "inputs": [],
      "name": "owner",
      "outputs": [
        {
          "internalType": "address",
          "name": "",
          "type": "address"
        }
      ],
      "stateMutability": "view",
      "type": "function"
    },
    {
      "inputs": [
        {
          "internalType": "uint256",
          "name": "tokenId",
          "type": "uint256"
        }
      ],
      "name": "ownerOf",
      "outputs": [
        {
          "internalType": "address",
          "name": "",
          "type": "address"
        }
      ],
      "stateMutability": "view",
      "type": "function"
    },
    {
      "inputs": [
        {
          "internalType": "string",
          "name": "_username",
          "type": "string"
        },
        {
          "internalType": "bool",
          "name": "_isAdvitiser",
          "type": "bool"
        }
      ],
      "name": "registerAccount",
      "outputs": [],
      "stateMutability": "nonpayable",
      "type": "function"
    },
    {
      "inputs": [],
      "name": "renounceOwnership",
      "outputs": [],
      "stateMutability": "nonpayable",
      "type": "function"
    },
    {
      "inputs": [
        {
          "internalType": "address",
          "name": "from",
          "type": "address"
        },
        {
          "internalType": "address",
          "name": "to",
          "type": "address"
        },
        {
          "internalType": "uint256",
          "name": "tokenId",
          "type": "uint256"
        }
      ],
      "name": "safeTransferFrom",
      "outputs": [],
      "stateMutability": "nonpayable",
      "type": "function"
    },
    {
      "inputs": [
        {
          "internalType": "address",
          "name": "from",
          "type": "address"
        },
        {
          "internalType": "address",
          "name": "to",
          "type": "address"
        },
        {
          "internalType": "uint256",
          "name": "tokenId",
          "type": "uint256"
        },
        {
          "internalType": "bytes",
          "name": "data",
          "type": "bytes"
        }
      ],
      "name": "safeTransferFrom",
      "outputs": [],
      "stateMutability": "nonpayable",
      "type": "function"
    },
    {
      "inputs": [
        {
          "internalType": "address",
          "name": "operator",
          "type": "address"
        },
        {
          "internalType": "bool",
          "name": "approved",
          "type": "bool"
        }
      ],
      "name": "setApprovalForAll",
      "outputs": [],
      "stateMutability": "nonpayable",
      "type": "function"
    },
    {
      "inputs": [
        {
          "internalType": "bytes4",
          "name": "interfaceId",
          "type": "bytes4"
        }
      ],
      "name": "supportsInterface",
      "outputs": [
        {
          "internalType": "bool",
          "name": "",
          "type": "bool"
        }
      ],
      "stateMutability": "view",
      "type": "function"
    },
    {
      "inputs": [],
      "name": "symbol",
      "outputs": [
        {
          "internalType": "string",
          "name": "",
          "type": "string"
        }
      ],
      "stateMutability": "view",
      "type": "function"
    },
    {
      "inputs": [
        {
          "internalType": "uint256",
          "name": "index",
          "type": "uint256"
        }
      ],
      "name": "tokenByIndex",
      "outputs": [
        {
          "internalType": "uint256",
          "name": "",
          "type": "uint256"
        }
      ],
      "stateMutability": "view",
      "type": "function"
    },
    {
      "inputs": [
        {
          "internalType": "address",
          "name": "owner",
          "type": "address"
        },
        {
          "internalType": "uint256",
          "name": "index",
          "type": "uint256"
        }
      ],
      "name": "tokenOfOwnerByIndex",
      "outputs": [
        {
          "internalType": "uint256",
          "name": "",
          "type": "uint256"
        }
      ],
      "stateMutability": "view",
      "type": "function"
    },
    {
      "inputs": [
        {
          "internalType": "uint256",
          "name": "tokenId",
          "type": "uint256"
        }
      ],
      "name": "tokenURI",
      "outputs": [
        {
          "internalType": "string",
          "name": "",
          "type": "string"
        }
      ],
      "stateMutability": "view",
      "type": "function"
    },
    {
      "inputs": [],
      "name": "totalSupply",
      "outputs": [
        {
          "internalType": "uint256",
          "name": "",
          "type": "uint256"
        }
      ],
      "stateMutability": "view",
      "type": "function"
    },
    {
      "inputs": [
        {
          "internalType": "address",
          "name": "from",
          "type": "address"
        },
        {
          "internalType": "address",
          "name": "to",
          "type": "address"
        },
        {
          "internalType": "uint256",
          "name": "tokenId",
          "type": "uint256"
        }
      ],
      "name": "transferFrom",
      "outputs": [],
      "stateMutability": "nonpayable",
      "type": "function"
    },
    {
      "inputs": [
        {
          "internalType": "address",
          "name": "newOwner",
          "type": "address"
        }
      ],
      "name": "transferOwnership",
      "outputs": [],
      "stateMutability": "nonpayable",
      "type": "function"
    }
  ],
  "bytecode": "0x60806040523480156200001157600080fd5b50604080518082018252601381527f56696465726920557365727320566964656f73000000000000000000000000006020808301918252835180850190945260038452622b2aab60e91b908401528151919291620000729160009162000101565b5080516200008890600190602084019062000101565b505050620000a56200009f620000ab60201b60201c565b620000af565b620001e4565b3390565b600b80546001600160a01b038381166001600160a01b0319831681179093556040519116919082907f8be0079c531659141344cd1fd0a4f28419497f9722a3daafe3b4186f6b6457e090600090a35050565b8280546200010f90620001a7565b90600052602060002090601f0160209004810192826200013357600085556200017e565b82601f106200014e57805160ff19168380011785556200017e565b828001600101855582156200017e579182015b828111156200017e57825182559160200191906001019062000161565b506200018c92915062000190565b5090565b5b808211156200018c576000815560010162000191565b600281046001821680620001bc57607f821691505b60208210811415620001de57634e487b7160e01b600052602260045260246000fd5b50919050565b613f8280620001f46000396000f3fe6080604052600436106101f85760003560e01c80634f6ccce71161010d5780639a20a9be116100a0578063b79e46841161006f578063b79e468414610608578063b88d4fde14610628578063c87b56dd14610648578063e985e9c514610668578063f2fde38b14610688576101f8565b80639a20a9be14610587578063a22cb465146105a7578063a4ba5deb146105c7578063a7bc3928146105da576101f8565b8063715018a6116100dc578063715018a61461052457806389f915f6146105395780638da5cb5b1461055d57806395d89b4114610572576101f8565b80634f6ccce7146104a45780634f90b54f146104c45780636352211e146104e457806370a0823114610504576101f8565b806318160ddd116101905780632893eca21161015f5780632893eca2146103e35780632f745c59146104155780633cae68511461043557806342842e0e146104645780634d84496614610484576101f8565b806318160ddd1461034d5780631999d1461461036f57806323b872dd146103a357806327260d5c146103c3576101f8565b8063095ea7b3116101cc578063095ea7b3146102975780630b8a434d146102b75780630d40139b146102e85780630f990f191461031a576101f8565b806241ecf4146101fd57806301ffc9a71461021257806306fdde0314610248578063081812fc1461026a575b600080fd5b61021061020b366004612ff6565b6106a8565b005b34801561021e57600080fd5b5061023261022d366004612edf565b610820565b60405161023f91906132eb565b60405180910390f35b34801561025457600080fd5b5061025d610833565b60405161023f91906132f6565b34801561027657600080fd5b5061028a610285366004613082565b6108c5565b60405161023f919061324f565b3480156102a357600080fd5b506102106102b2366004612eb6565b6108ec565b3480156102c357600080fd5b506102d76102d2366004613082565b610984565b60405161023f959493929190613ce9565b3480156102f457600080fd5b50610308610303366004612d8d565b610ad2565b60405161023f969594939291906132a0565b34801561032657600080fd5b5061033a610335366004613082565b610bcc565b60405161023f9796959493929190613c72565b34801561035957600080fd5b50610362610e6c565b60405161023f9190613bb1565b34801561037b57600080fd5b5061038f61038a366004613082565b610e72565b60405161023f989796959493929190613d36565b3480156103af57600080fd5b506102106103be366004612dd9565b611059565b3480156103cf57600080fd5b506102106103de366004613082565b611091565b3480156103ef57600080fd5b506104036103fe366004613082565b6111a8565b60405161023f96959493929190613c03565b34801561042157600080fd5b50610362610430366004612eb6565b61143f565b34801561044157600080fd5b50610455610450366004613082565b611491565b60405161023f93929190613da6565b34801561047057600080fd5b5061021061047f366004612dd9565b61154f565b34801561049057600080fd5b5061021061049f366004612f5a565b61156a565b3480156104b057600080fd5b506103626104bf366004613082565b611707565b3480156104d057600080fd5b506102106104df3660046130d4565b611762565b3480156104f057600080fd5b5061028a6104ff366004613082565b6117e5565b34801561051057600080fd5b5061036261051f366004612d8d565b611819565b34801561053057600080fd5b5061021061185d565b34801561054557600080fd5b5061054e611871565b60405161023f93929190613df3565b34801561056957600080fd5b5061028a61187f565b34801561057e57600080fd5b5061025d61188e565b34801561059357600080fd5b506102106105a2366004612f17565b61189d565b3480156105b357600080fd5b506102106105c2366004612e8d565b61195d565b6102106105d536600461309a565b611973565b3480156105e657600080fd5b506105fa6105f5366004613082565b611b57565b60405161023f929190613bba565b34801561061457600080fd5b50610308610623366004612d8d565b611bd6565b34801561063457600080fd5b50610210610643366004612e14565b611ca6565b34801561065457600080fd5b5061025d610663366004613082565b611ce5565b34801561067457600080fd5b50610232610683366004612da7565b611cf0565b34801561069457600080fd5b506102106106a3366004612d8d565b611d1e565b60008451116106d25760405162461bcd60e51b81526004016106c990613906565b60405180910390fd5b60008351116106f35760405162461bcd60e51b81526004016106c990613a17565b600a825111156107155760405162461bcd60e51b81526004016106c9906139ab565b600081116107355760405162461bcd60e51b81526004016106c990613626565b8034146107545760405162461bcd60e51b81526004016106c9906137d9565b3360009081526012602052604090206003015460ff6101009091041615156001146107915760405162461bcd60e51b81526004016106c990613b4c565b600d54600081815260106020908152604090912091825585516107bc91600184019190880190612b29565b506002810180546001600160a01b0319163317905583516107e69060038301906020870190612b29565b5082516107fc9060048301906020860190612bad565b5060068101829055600d805490600061081483613eef565b91905055505050505050565b600061082b82611d58565b90505b919050565b60606000805461084290613eb4565b80601f016020809104026020016040519081016040528092919081815260200182805461086e90613eb4565b80156108bb5780601f10610890576101008083540402835291602001916108bb565b820191906000526020600020905b81548152906001019060200180831161089e57829003601f168201915b5050505050905090565b60006108d082611d7d565b506000908152600460205260409020546001600160a01b031690565b60006108f7826117e5565b9050806001600160a01b0316836001600160a01b0316141561092b5760405162461bcd60e51b81526004016106c9906139d6565b806001600160a01b031661093d611da2565b6001600160a01b03161480610959575061095981610683611da2565b6109755760405162461bcd60e51b81526004016106c990613a4e565b61097f8383611da6565b505050565b601060205260009081526040902080546001820180549192916109a690613eb4565b80601f01602080910402602001604051908101604052809291908181526020018280546109d290613eb4565b8015610a1f5780601f106109f457610100808354040283529160200191610a1f565b820191906000526020600020905b815481529060010190602001808311610a0257829003601f168201915b505050600284015460038501805494956001600160a01b03909216949193509150610a4990613eb4565b80601f0160208091040260200160405190810160405280929190818152602001828054610a7590613eb4565b8015610ac25780601f10610a9757610100808354040283529160200191610ac2565b820191906000526020600020905b815481529060010190602001808311610aa557829003601f168201915b5050505050908060060154905085565b6001600160a01b038082166000908152601260205260408120805460028201546003830154600190930180549495606095879586958695869591909416939092909160ff808216926101008304821692620100009004909116908590610b3790613eb4565b80601f0160208091040260200160405190810160405280929190818152602001828054610b6390613eb4565b8015610bb05780601f10610b8557610100808354040283529160200191610bb0565b820191906000526020600020905b815481529060010190602001808311610b9357829003601f168201915b5050505050945095509550955095509550955091939550919395565b600081815260106020526040812080546002820154600683015460018401805460609587958795869586958995939490936001600160a01b039093169260038201926004830192600501918690610c2290613eb4565b80601f0160208091040260200160405190810160405280929190818152602001828054610c4e90613eb4565b8015610c9b5780601f10610c7057610100808354040283529160200191610c9b565b820191906000526020600020905b815481529060010190602001808311610c7e57829003601f168201915b50505050509550838054610cae90613eb4565b80601f0160208091040260200160405190810160405280929190818152602001828054610cda90613eb4565b8015610d275780601f10610cfc57610100808354040283529160200191610d27565b820191906000526020600020905b815481529060010190602001808311610d0a57829003601f168201915b5050505050935082805480602002602001604051908101604052809291908181526020016000905b82821015610dfb578382906000526020600020018054610d6e90613eb4565b80601f0160208091040260200160405190810160405280929190818152602001828054610d9a90613eb4565b8015610de75780601f10610dbc57610100808354040283529160200191610de7565b820191906000526020600020905b815481529060010190602001808311610dca57829003601f168201915b505050505081526020019060010190610d4f565b50505050925081805480602002602001604051908101604052809291908181526020018280548015610e4c57602002820191906000526020600020905b815481526020019060010190808311610e38575b505050505091509650965096509650965096509650919395979092949650565b60085490565b60116020526000908152604090208054600182018054919291610e9490613eb4565b80601f0160208091040260200160405190810160405280929190818152602001828054610ec090613eb4565b8015610f0d5780601f10610ee257610100808354040283529160200191610f0d565b820191906000526020600020905b815481529060010190602001808311610ef057829003601f168201915b505050506002830154600384015460048501805494956001600160a01b039093169491935090610f3c90613eb4565b80601f0160208091040260200160405190810160405280929190818152602001828054610f6890613eb4565b8015610fb55780601f10610f8a57610100808354040283529160200191610fb5565b820191906000526020600020905b815481529060010190602001808311610f9857829003601f168201915b505050505090806005018054610fca90613eb4565b80601f0160208091040260200160405190810160405280929190818152602001828054610ff690613eb4565b80156110435780601f1061101857610100808354040283529160200191611043565b820191906000526020600020905b81548152906001019060200180831161102657829003601f168201915b50505050509080600801549080600a0154905088565b61106a611064611da2565b82611e14565b6110865760405162461bcd60e51b81526004016106c990613383565b61097f838383611e73565b600081815260116020526040812090805b600983015481101561111357336001600160a01b03168360090182815481106110db57634e487b7160e01b600052603260045260246000fd5b6000918252602090912001546001600160a01b03161461110357816110ff81613eef565b9250505b61110c81613eef565b90506110a2565b50600982015481146111375760405162461bcd60e51b81526004016106c99061393d565b60088201805490600061114983613eef565b90915550506009820180546001810182556000918252602080832090910180546001600160a01b031916331790556002808501546001600160a01b031683526012909152604082200180549161119e83613eef565b9190505550505050565b6000818152601160205260408120805460028201546001830180546060948694869485948594929390926001600160a01b03909216916005820191600681019160079091019085906111f990613eb4565b80601f016020809104026020016040519081016040528092919081815260200182805461122590613eb4565b80156112725780601f1061124757610100808354040283529160200191611272565b820191906000526020600020905b81548152906001019060200180831161125557829003601f168201915b5050505050945082805461128590613eb4565b80601f01602080910402602001604051908101604052809291908181526020018280546112b190613eb4565b80156112fe5780601f106112d3576101008083540402835291602001916112fe565b820191906000526020600020905b8154815290600101906020018083116112e157829003601f168201915b5050505050925081805480602002602001604051908101604052809291908181526020016000905b828210156113d257838290600052602060002001805461134590613eb4565b80601f016020809104026020016040519081016040528092919081815260200182805461137190613eb4565b80156113be5780601f10611393576101008083540402835291602001916113be565b820191906000526020600020905b8154815290600101906020018083116113a157829003601f168201915b505050505081526020019060010190611326565b5050505091508080548060200260200160405190810160405280929190818152602001828054801561142357602002820191906000526020600020905b81548152602001906001019080831161140f575b5050505050905095509550955095509550955091939550919395565b600061144a83611819565b82106114685760405162461bcd60e51b81526004016106c990613448565b506001600160a01b03919091166000908152600660209081526040808320938352929052205490565b60008181526011602052604081206003810154600a820154600490920180546060938593929182906114c290613eb4565b80601f01602080910402602001604051908101604052809291908181526020018280546114ee90613eb4565b801561153b5780601f106115105761010080835404028352916020019161153b565b820191906000526020600020905b81548152906001019060200180831161151e57829003601f168201915b505050505091509250925092509193909250565b61097f83838360405180602001604052806000815250611ca6565b600084511161158b5760405162461bcd60e51b81526004016106c990613309565b60008351116115ac5760405162461bcd60e51b81526004016106c990613b83565b600a825111156115ce5760405162461bcd60e51b81526004016106c990613717565b60008151116115ef5760405162461bcd60e51b81526004016106c990613888565b33600090815260126020526040902060030154610100900460ff16156116275760405162461bcd60e51b81526004016106c9906136ec565b6000611633600c611fb0565b905061163f600c611fb4565b6116493382611fbd565b6116538183611fd7565b600e546000818152601160209081526040909120918255865161167e91600184019190890190612b29565b506002810180546001600160a01b031916331790556003810182905582516116af9060048301906020860190612b29565b5084516116c59060058301906020880190612b29565b5083516116db9060068301906020870190612bad565b50600060088201819055600a8201819055600e8054916116fa83613eef565b9190505550505050505050565b6000611711610e6c565b821061172f5760405162461bcd60e51b81526004016106c990613aab565b6008828154811061175057634e487b7160e01b600052603260045260246000fd5b90600052602060002001549050919050565b3360009081526012602052604090206003015460ff61010090910416151560011461179f5760405162461bcd60e51b81526004016106c9906133d0565b6000828152601060209081526040808320848452601183529083206005909101805460018181018355918552838520019490945560070180549384018155825290200155565b6000806117f183612057565b90506001600160a01b03811661082b5760405162461bcd60e51b81526004016106c990613974565b60006001600160a01b0382166118415760405162461bcd60e51b81526004016106c990613742565b506001600160a01b031660009081526003602052604090205490565b611865612072565b61186f60006120b1565b565b600d54600e54600f54909192565b600b546001600160a01b031690565b60606001805461084290613eb4565b3360009081526012602052604090206003015462010000900460ff16156118d65760405162461bcd60e51b81526004016106c9906135de565b60008251116118f75760405162461bcd60e51b81526004016106c9906133fb565b33600081815260126020908152604090912080546001600160a01b0319169092178255835161192e91600184019190860190612b29565b5060006002820155600301805462ff0000199215156101000261ff001990911617919091166201000017905550565b61196f611968611da2565b8383612103565b5050565b6000828152601060209081526040808320848452601190925282209091805b60078301548110156119f157858360070182815481106119c257634e487b7160e01b600052603260045260246000fd5b906000526020600020015414156119e157816119dd81613eef565b9250505b6119ea81613eef565b9050611992565b5080611a0f5760405162461bcd60e51b81526004016106c990613335565b60088201546000611a2782662386f26fc10000613e52565b90508085600601541015611a4d5760405162461bcd60e51b81526004016106c9906138b3565b80856006016000828254611a619190613e71565b909155507302101dfb77fde026414827fdc604ddaf224f09219050732d25602551487c3f3354dd80d76d54383a243358620138818a8c600080611aa88787878787866121a6565b90506000816001600160a01b0316896108fc90604051611ac79061324c565b600060405180830381858888f193505050503d8060008114611b05576040519150601f19603f3d011682016040523d82523d6000602084013e611b0a565b606091505b5050905080611b2b5760405162461bcd60e51b81526004016106c9906135a7565b888c600a016000828254611b3f9190613e3a565b90915550505050505050505050505050505050505050565b600081815260116020908152604080832060088101546009909101805483518186028101860190945280845260609492939192839190830182828015611bc657602002820191906000526020600020905b81546001600160a01b03168152600190910190602001808311611ba8575b5050505050905091509150915091565b601260205260009081526040902080546001820180546001600160a01b039092169291611c0290613eb4565b80601f0160208091040260200160405190810160405280929190818152602001828054611c2e90613eb4565b8015611c7b5780601f10611c5057610100808354040283529160200191611c7b565b820191906000526020600020905b815481529060010190602001808311611c5e57829003601f168201915b50505050600283015460039093015491929160ff808216925061010082048116916201000090041686565b611cb7611cb1611da2565b83611e14565b611cd35760405162461bcd60e51b81526004016106c990613383565b611cdf848484846121d7565b50505050565b606061082b8261220a565b6001600160a01b03918216600090815260056020908152604080832093909416825291909152205460ff1690565b611d26612072565b6001600160a01b038116611d4c5760405162461bcd60e51b81526004016106c9906134e5565b611d55816120b1565b50565b60006001600160e01b03198216632483248360e11b148061082b575061082b82612307565b611d868161232c565b611d555760405162461bcd60e51b81526004016106c990613974565b3390565b600081815260046020526040902080546001600160a01b0319166001600160a01b0384169081179091558190611ddb826117e5565b6001600160a01b03167f8c5be1e5ebec7d5bd14f71427d1e84f3dd0314c0f7b2291e5b200ac8c7c3b92560405160405180910390a45050565b600080611e20836117e5565b9050806001600160a01b0316846001600160a01b03161480611e475750611e478185611cf0565b80611e6b5750836001600160a01b0316611e60846108c5565b6001600160a01b0316145b949350505050565b826001600160a01b0316611e86826117e5565b6001600160a01b031614611eac5760405162461bcd60e51b81526004016106c99061352b565b6001600160a01b038216611ed25760405162461bcd60e51b81526004016106c990613671565b611edf8383836001612349565b826001600160a01b0316611ef2826117e5565b6001600160a01b031614611f185760405162461bcd60e51b81526004016106c99061352b565b600081815260046020908152604080832080546001600160a01b03199081169091556001600160a01b0387811680865260038552838620805460001901905590871680865283862080546001019055868652600290945282852080549092168417909155905184937fddf252ad1be2c89b69c2b068fc378daa952ba7f163c4a11628f55a4df523b3ef91a461097f8383836001611cdf565b5490565b80546001019055565b61196f828260405180602001604052806000815250612355565b611fe08261232c565b611ffc5760405162461bcd60e51b81526004016106c99061378b565b6000828152600a60209081526040909120825161201b92840190612b29565b507ff8e1a15aba9398e019f0b49df1a4fde98ee17ae345cb5f6b5e2c27f5033e8ce78260405161204b9190613bb1565b60405180910390a15050565b6000908152600260205260409020546001600160a01b031690565b61207a611da2565b6001600160a01b031661208b61187f565b6001600160a01b03161461186f5760405162461bcd60e51b81526004016106c990613853565b600b80546001600160a01b038381166001600160a01b0319831681179093556040519116919082907f8be0079c531659141344cd1fd0a4f28419497f9722a3daafe3b4186f6b6457e090600090a35050565b816001600160a01b0316836001600160a01b031614156121355760405162461bcd60e51b81526004016106c9906136b5565b6001600160a01b0383811660008181526005602090815260408083209487168084529490915290819020805460ff1916851515179055517f17307eab39ab6107e8899845ad3d59bd9653f200f220920489ca2b5937696c31906121999085906132eb565b60405180910390a3505050565b6000806121b68787878787612388565b805160209091012090506121cb83828a6123da565b98975050505050505050565b6121e2848484611e73565b6121ee84848484612404565b611cdf5760405162461bcd60e51b81526004016106c990613493565b606061221582611d7d565b6000828152600a60205260408120805461222e90613eb4565b80601f016020809104026020016040519081016040528092919081815260200182805461225a90613eb4565b80156122a75780601f1061227c576101008083540402835291602001916122a7565b820191906000526020600020905b81548152906001019060200180831161228a57829003601f168201915b5050505050905060006122b861251f565b90508051600014156122cc5750905061082e565b8151156122fe5780826040516020016122e69291906131ae565b6040516020818303038152906040529250505061082e565b611e6b84612531565b60006001600160e01b0319821663780e9d6360e01b148061082b575061082b82612598565b60008061233883612057565b6001600160a01b0316141592915050565b611cdf848484846125d8565b61235f838361268b565b61236c6000848484612404565b61097f5760405162461bcd60e51b81526004016106c990613493565b606085828686866040516020016123a29493929190613dcf565b60408051601f19818403018152908290526123c092916020016131dd565b604051602081830303815290604052905095945050505050565b6000604051836040820152846020820152828152600b8101905060ff815360559020949350505050565b6000612418846001600160a01b0316612780565b1561251457836001600160a01b031663150b7a02612434611da2565b8786866040518563ffffffff1660e01b81526004016124569493929190613263565b602060405180830381600087803b15801561247057600080fd5b505af19250505080156124a0575060408051601f3d908101601f1916820190925261249d91810190612efb565b60015b6124fa573d8080156124ce576040519150601f19603f3d011682016040523d82523d6000602084013e6124d3565b606091505b5080516124f25760405162461bcd60e51b81526004016106c990613493565b805181602001fd5b6001600160e01b031916630a85bd0160e11b149050611e6b565b506001949350505050565b60408051602081019091526000815290565b606061253c82611d7d565b600061254661251f565b905060008151116125665760405180602001604052806000815250612591565b806125708461278f565b6040516020016125819291906131ae565b6040516020818303038152906040525b9392505050565b60006001600160e01b031982166380ac58cd60e01b14806125c957506001600160e01b03198216635b5e139f60e01b145b8061082b575061082b8261283a565b6125e484848484611cdf565b60018111156126055760405162461bcd60e51b81526004016106c990613af7565b816001600160a01b0385166126225761261d81612853565b612645565b836001600160a01b0316856001600160a01b031614612645576126458582612897565b6001600160a01b0384166126615761265c81612934565b612684565b846001600160a01b0316846001600160a01b031614612684576126848482612a0d565b5050505050565b6001600160a01b0382166126b15760405162461bcd60e51b81526004016106c99061381e565b6126ba8161232c565b156126d75760405162461bcd60e51b81526004016106c990613570565b6126e5600083836001612349565b6126ee8161232c565b1561270b5760405162461bcd60e51b81526004016106c990613570565b6001600160a01b038216600081815260036020908152604080832080546001019055848352600290915280822080546001600160a01b0319168417905551839291907fddf252ad1be2c89b69c2b068fc378daa952ba7f163c4a11628f55a4df523b3ef908290a461196f600083836001611cdf565b6001600160a01b03163b151590565b6060600061279c83612a51565b600101905060008167ffffffffffffffff8111156127ca57634e487b7160e01b600052604160045260246000fd5b6040519080825280601f01601f1916602001820160405280156127f4576020820181803683370190505b5090508181016020015b600019016f181899199a1a9b1b9c1cb0b131b232b360811b600a86061a8153600a850494508461282d57612832565b6127fe565b509392505050565b6001600160e01b031981166301ffc9a760e01b14919050565b600880546000838152600960205260408120829055600182018355919091527ff3f7a9fe364faab93b216da50a3214154f22a0a2b415b23a84c8169e8b636ee30155565b600060016128a484611819565b6128ae9190613e71565b600083815260076020526040902054909150808214612901576001600160a01b03841660009081526006602090815260408083208584528252808320548484528184208190558352600790915290208190555b5060009182526007602090815260408084208490556001600160a01b039094168352600681528383209183525290812055565b60085460009061294690600190613e71565b6000838152600960205260408120546008805493945090928490811061297c57634e487b7160e01b600052603260045260246000fd5b9060005260206000200154905080600883815481106129ab57634e487b7160e01b600052603260045260246000fd5b60009182526020808320909101929092558281526009909152604080822084905585825281205560088054806129f157634e487b7160e01b600052603160045260246000fd5b6001900381819060005260206000200160009055905550505050565b6000612a1883611819565b6001600160a01b039093166000908152600660209081526040808320868452825280832085905593825260079052919091209190915550565b60008072184f03e93ff9f4daa797ed6e38ed64bf6a1f0160401b8310612a905772184f03e93ff9f4daa797ed6e38ed64bf6a1f0160401b830492506040015b6d04ee2d6d415b85acef81000000008310612abc576d04ee2d6d415b85acef8100000000830492506020015b662386f26fc100008310612ada57662386f26fc10000830492506010015b6305f5e1008310612af2576305f5e100830492506008015b6127108310612b0657612710830492506004015b60648310612b18576064830492506002015b600a831061082b5760010192915050565b828054612b3590613eb4565b90600052602060002090601f016020900481019282612b575760008555612b9d565b82601f10612b7057805160ff1916838001178555612b9d565b82800160010185558215612b9d579182015b82811115612b9d578251825591602001919060010190612b82565b50612ba9929150612c06565b5090565b828054828255906000526020600020908101928215612bfa579160200282015b82811115612bfa5782518051612bea918491602090910190612b29565b5091602001919060010190612bcd565b50612ba9929150612c1b565b5b80821115612ba95760008155600101612c07565b80821115612ba9576000612c2f8282612c38565b50600101612c1b565b508054612c4490613eb4565b6000825580601f10612c565750611d55565b601f016020900490600052602060002090810190611d559190612c06565b600067ffffffffffffffff831115612c8e57612c8e613f20565b612ca1601f8401601f1916602001613e09565b9050828152838383011115612cb557600080fd5b828260208301376000602084830101529392505050565b80356001600160a01b038116811461082e57600080fd5b600082601f830112612cf3578081fd5b8135602067ffffffffffffffff821115612d0f57612d0f613f20565b612d1c8182840201613e09565b82815281810190858301855b85811015612d5157612d3f898684358b0101612d6e565b84529284019290840190600101612d28565b5090979650505050505050565b8035801515811461082e57600080fd5b600082601f830112612d7e578081fd5b61259183833560208501612c74565b600060208284031215612d9e578081fd5b61259182612ccc565b60008060408385031215612db9578081fd5b612dc283612ccc565b9150612dd060208401612ccc565b90509250929050565b600080600060608486031215612ded578081fd5b612df684612ccc565b9250612e0460208501612ccc565b9150604084013590509250925092565b60008060008060808587031215612e29578081fd5b612e3285612ccc565b9350612e4060208601612ccc565b925060408501359150606085013567ffffffffffffffff811115612e62578182fd5b8501601f81018713612e72578182fd5b612e8187823560208401612c74565b91505092959194509250565b60008060408385031215612e9f578182fd5b612ea883612ccc565b9150612dd060208401612d5e565b60008060408385031215612ec8578182fd5b612ed183612ccc565b946020939093013593505050565b600060208284031215612ef0578081fd5b813561259181613f36565b600060208284031215612f0c578081fd5b815161259181613f36565b60008060408385031215612f29578182fd5b823567ffffffffffffffff811115612f3f578283fd5b612f4b85828601612d6e565b925050612dd060208401612d5e565b60008060008060808587031215612f6f578384fd5b843567ffffffffffffffff80821115612f86578586fd5b612f9288838901612d6e565b95506020870135915080821115612fa7578485fd5b612fb388838901612d6e565b94506040870135915080821115612fc8578384fd5b612fd488838901612ce3565b93506060870135915080821115612fe9578283fd5b50612e8187828801612d6e565b6000806000806080858703121561300b578081fd5b843567ffffffffffffffff80821115613022578283fd5b61302e88838901612d6e565b95506020870135915080821115613043578283fd5b61304f88838901612d6e565b94506040870135915080821115613064578283fd5b5061307187828801612ce3565b949793965093946060013593505050565b600060208284031215613093578081fd5b5035919050565b600080600080608085870312156130af578182fd5b843593506130bf60208601612ccc565b93969395505050506040820135916060013590565b600080604083850312156130e6578182fd5b50508035926020909101359150565b6000815180845260208085018081965082840281019150828601855b8581101561313b578284038952613129848351613182565b98850198935090840190600101613111565b5091979650505050505050565b6000815180845260208085019450808401835b838110156131775781518752958201959082019060010161315b565b509495945050505050565b6000815180845261319a816020860160208601613e88565b601f01601f19169290920160200192915050565b600083516131c0818460208801613e88565b8351908301906131d4818360208801613e88565b01949350505050565b733d60ad80600a3d3981f3363d3d373d3d3d363d7360601b8152606083901b6bffffffffffffffffffffffff191660148201526e5af43d82803e903d91602b57fd5bf360881b6028820152815160009061323e816037850160208701613e88565b919091016037019392505050565b90565b6001600160a01b0391909116815260200190565b6001600160a01b038581168252841660208201526040810183905260806060820181905260009061329690830184613182565b9695505050505050565b6001600160a01b038716815260c0602082018190526000906132c490830188613182565b60408301969096525092151560608401529015156080830152151560a09091015292915050565b901515815260200190565b6000602082526125916020830184613182565b6020808252601290820152716e616d6520746f20796f757220766964656f60701b604082015260600190565b6020808252602e908201527f54686973206164766572746973656d656e74206973206e6f74206c696e6b656460408201526d20746f20796f757220766964656f60901b606082015260800190565b6020808252602d908201527f4552433732313a2063616c6c6572206973206e6f7420746f6b656e206f776e6560408201526c1c881bdc88185c1c1c9bdd9959609a1b606082015260800190565b60208082526011908201527026bab9ba1031329030b23b34ba34b9b2b960791b604082015260600190565b6020808252602d908201527f5468657265206d757374206265206120757365726e616d6520746f20796f757260408201526c0818591d995c9d1a5cdb595b9d609a1b606082015260800190565b6020808252602b908201527f455243373231456e756d657261626c653a206f776e657220696e646578206f7560408201526a74206f6620626f756e647360a81b606082015260800190565b60208082526032908201527f4552433732313a207472616e7366657220746f206e6f6e20455243373231526560408201527131b2b4bb32b91034b6b83632b6b2b73a32b960711b606082015260800190565b60208082526026908201527f4f776e61626c653a206e6577206f776e657220697320746865207a65726f206160408201526564647265737360d01b606082015260800190565b60208082526025908201527f4552433732313a207472616e736665722066726f6d20696e636f72726563742060408201526437bbb732b960d91b606082015260800190565b6020808252601c908201527f4552433732313a20746f6b656e20616c7265616479206d696e74656400000000604082015260600190565b6020808252601a908201527f5472616e7366657220746f2063726561746f72206661696c6564000000000000604082015260600190565b60208082526028908201527f596f75206861766520616c7265616479207265676973746572656420796f7572604082015267081858d8dbdd5b9d60c21b606082015260800190565b6020808252602b908201527f5374616b656420616d6f756e74206d757374206265206772656174657220746860408201526a0c2dc40f4cae4de408aa8960ab1b606082015260800190565b60208082526024908201527f4552433732313a207472616e7366657220746f20746865207a65726f206164646040820152637265737360e01b606082015260800190565b60208082526019908201527f4552433732313a20617070726f766520746f2063616c6c657200000000000000604082015260600190565b60208082526011908201527010bb34b232b7b99030b23b34ba34b9b2b960791b604082015260600190565b602080825260119082015270757020746f203130206b6579776f72647360781b604082015260600190565b60208082526029908201527f4552433732313a2061646472657373207a65726f206973206e6f7420612076616040820152683634b21037bbb732b960b91b606082015260800190565b6020808252602e908201527f45524337323155524953746f726167653a2055524920736574206f66206e6f6e60408201526d32bc34b9ba32b73a103a37b5b2b760911b606082015260800190565b60208082526025908201527f56616c75652073656e74203d3d20737065636966696564207374616b656420616040820152641b5bdd5b9d60da1b606082015260800190565b6020808252818101527f4552433732313a206d696e7420746f20746865207a65726f2061646472657373604082015260600190565b6020808252818101527f4f776e61626c653a2063616c6c6572206973206e6f7420746865206f776e6572604082015260600190565b60208082526011908201527055524920746f20796f757220766964656f60781b604082015260600190565b60208082526033908201527f4e6f7420656e6f7567682066756e647320696e20746865206164766572746973604082015272656d656e7420666f7220746865206c696b657360681b606082015260800190565b6020808252601c908201527f4e6f206e616d6520746f20796f75722061647665727469736d656e7400000000604082015260600190565b6020808252601f908201527f596f75206861766520616c7265616479206c696b65642074686520706f737400604082015260600190565b60208082526018908201527f4552433732313a20696e76616c696420746f6b656e2049440000000000000000604082015260600190565b602080825260119082015270557020746f203130206b6579776f72647360781b604082015260600190565b60208082526021908201527f4552433732313a20617070726f76616c20746f2063757272656e74206f776e656040820152603960f91b606082015260800190565b6020808252601d908201527f4e6f20617373657420746f20796f75722061647665727469736d656e74000000604082015260600190565b6020808252603d908201527f4552433732313a20617070726f76652063616c6c6572206973206e6f7420746f60408201527f6b656e206f776e6572206f7220617070726f76656420666f7220616c6c000000606082015260800190565b6020808252602c908201527f455243373231456e756d657261626c653a20676c6f62616c20696e646578206f60408201526b7574206f6620626f756e647360a01b606082015260800190565b60208082526035908201527f455243373231456e756d657261626c653a20636f6e7365637574697665207472604082015274185b9cd9995c9cc81b9bdd081cdd5c1c1bdc9d1959605a1b606082015260800190565b6020808252601a908201527f21766964656f7320696620636f6e74656e742063726561746f72000000000000604082015260600190565b602080825260149082015273159a59195bc81d1bc81e5bdd5c881d5c1b1bd85960621b604082015260600190565b90815260200190565b60006040820184835260206040818501528185518084526060860191508287019350845b81811015612d515784516001600160a01b031683529383019391830191600101613bde565b600087825260c06020830152613c1c60c0830188613182565b6001600160a01b03871660408401528281036060840152613c3d8187613182565b90508281036080840152613c5181866130f5565b905082810360a0840152613c658185613148565b9998505050505050505050565b600088825260e06020830152613c8b60e0830189613182565b6001600160a01b03881660408401528281036060840152613cac8188613182565b90508281036080840152613cc081876130f5565b905082810360a0840152613cd48186613148565b9150508260c083015298975050505050505050565b600086825260a06020830152613d0260a0830187613182565b6001600160a01b03861660408401528281036060840152613d238186613182565b9150508260808301529695505050505050565b60006101008a8352806020840152613d508184018b613182565b6001600160a01b038a1660408501526060840189905283810360808501529050613d7a8188613182565b905082810360a0840152613d8e8187613182565b60c0840195909552505060e001529695505050505050565b600084825260606020830152613dbf6060830185613182565b9050826040830152949350505050565b93845260208401929092526001600160a01b03166040830152606082015260800190565b9283526020830191909152604082015260600190565b604051601f8201601f1916810167ffffffffffffffff81118282101715613e3257613e32613f20565b604052919050565b60008219821115613e4d57613e4d613f0a565b500190565b6000816000190483118215151615613e6c57613e6c613f0a565b500290565b600082821015613e8357613e83613f0a565b500390565b60005b83811015613ea3578181015183820152602001613e8b565b83811115611cdf5750506000910152565b600281046001821680613ec857607f821691505b60208210811415613ee957634e487b7160e01b600052602260045260246000fd5b50919050565b6000600019821415613f0357613f03613f0a565b5060010190565b634e487b7160e01b600052601160045260246000fd5b634e487b7160e01b600052604160045260246000fd5b6001600160e01b031981168114611d5557600080fdfea264697066735822122041143283825845f3882ab245c2343fe5dd173c646059e2c4d69ee35e4ac8827264736f6c63430008010033",
  "linkReferences": {},
  "deployedLinkReferences": {}
}