{
  "_format": "hh-sol-artifact-1",
  "contractName": "Videre",
  "sourceName": "contracts/Videre.sol",
  "abi": [
    {
      "inputs": [],
      "stateMutability": "nonpayable",
      "type": "constructor"
    },
    {
      "anonymous": false,
      "inputs": [
        {
          "indexed": true,
          "internalType": "address",
          "name": "owner",
          "type": "address"
        },
        {
          "indexed": true,
          "internalType": "address",
          "name": "approved",
          "type": "address"
        },
        {
          "indexed": true,
          "internalType": "uint256",
          "name": "tokenId",
          "type": "uint256"
        }
      ],
      "name": "Approval",
      "type": "event"
    },
    {
      "anonymous": false,
      "inputs": [
        {
          "indexed": true,
          "internalType": "address",
          "name": "owner",
          "type": "address"
        },
        {
          "indexed": true,
          "internalType": "address",
          "name": "operator",
          "type": "address"
        },
        {
          "indexed": false,
          "internalType": "bool",
          "name": "approved",
          "type": "bool"
        }
      ],
      "name": "ApprovalForAll",
      "type": "event"
    },
    {
      "anonymous": false,
      "inputs": [
        {
          "indexed": false,
          "internalType": "uint256",
          "name": "_fromTokenId",
          "type": "uint256"
        },
        {
          "indexed": false,
          "internalType": "uint256",
          "name": "_toTokenId",
          "type": "uint256"
        }
      ],
      "name": "BatchMetadataUpdate",
      "type": "event"
    },
    {
      "anonymous": false,
      "inputs": [
        {
          "indexed": false,
          "internalType": "uint256",
          "name": "_tokenId",
          "type": "uint256"
        }
      ],
      "name": "MetadataUpdate",
      "type": "event"
    },
    {
      "anonymous": false,
      "inputs": [
        {
          "indexed": true,
          "internalType": "address",
          "name": "previousOwner",
          "type": "address"
        },
        {
          "indexed": true,
          "internalType": "address",
          "name": "newOwner",
          "type": "address"
        }
      ],
      "name": "OwnershipTransferred",
      "type": "event"
    },
    {
      "anonymous": false,
      "inputs": [
        {
          "indexed": true,
          "internalType": "address",
          "name": "from",
          "type": "address"
        },
        {
          "indexed": true,
          "internalType": "address",
          "name": "to",
          "type": "address"
        },
        {
          "indexed": true,
          "internalType": "uint256",
          "name": "tokenId",
          "type": "uint256"
        }
      ],
      "name": "Transfer",
      "type": "event"
    },
    {
      "inputs": [
        {
          "internalType": "uint256",
          "name": "",
          "type": "uint256"
        }
      ],
      "name": "_advertisements",
      "outputs": [
        {
          "internalType": "uint256",
          "name": "advertisementId",
          "type": "uint256"
        },
        {
          "internalType": "string",
          "name": "name",
          "type": "string"
        },
        {
          "internalType": "address",
          "name": "creator",
          "type": "address"
        },
        {
          "internalType": "string",
          "name": "contentIpfsHash",
          "type": "string"
        },
        {
          "internalType": "uint256",
          "name": "stakedAmount",
          "type": "uint256"
        }
      ],
      "stateMutability": "view",
      "type": "function"
    },
    {
      "inputs": [
        {
          "internalType": "address",
          "name": "",
          "type": "address"
        }
      ],
      "name": "_contentCreators",
      "outputs": [
        {
          "internalType": "address",
          "name": "walletAddress",
          "type": "address"
        },
        {
          "internalType": "string",
          "name": "username",
          "type": "string"
        },
        {
          "internalType": "uint256",
          "name": "totalVideoLikes",
          "type": "uint256"
        },
        {
          "internalType": "bool",
          "name": "isWorldcoinVerified",
          "type": "bool"
        },
        {
          "internalType": "bool",
          "name": "isAdvertiser",
          "type": "bool"
        },
        {
          "internalType": "bool",
          "name": "isRegistered",
          "type": "bool"
        }
      ],
      "stateMutability": "view",
      "type": "function"
    },
    {
      "inputs": [
        {
          "internalType": "uint256",
          "name": "",
          "type": "uint256"
        }
      ],
      "name": "_videos",
      "outputs": [
        {
          "internalType": "uint256",
          "name": "videoId",
          "type": "uint256"
        },
        {
          "internalType": "string",
          "name": "name",
          "type": "string"
        },
        {
          "internalType": "address",
          "name": "creator",
          "type": "address"
        },
        {
          "internalType": "uint256",
          "name": "contentTokenID",
          "type": "uint256"
        },
        {
          "internalType": "string",
          "name": "contentURI",
          "type": "string"
        },
        {
          "internalType": "string",
          "name": "contentIpfsHash",
          "type": "string"
        },
        {
          "internalType": "uint256",
          "name": "numOfLikes",
          "type": "uint256"
        },
        {
          "internalType": "uint256",
          "name": "amountOfEthCollected",
          "type": "uint256"
        }
      ],
      "stateMutability": "view",
      "type": "function"
    },
    {
      "inputs": [
        {
          "internalType": "address",
          "name": "to",
          "type": "address"
        },
        {
          "internalType": "uint256",
          "name": "tokenId",
          "type": "uint256"
        }
      ],
      "name": "approve",
      "outputs": [],
      "stateMutability": "nonpayable",
      "type": "function"
    },
    {
      "inputs": [
        {
          "internalType": "address",
          "name": "owner",
          "type": "address"
        }
      ],
      "name": "balanceOf",
      "outputs": [
        {
          "internalType": "uint256",
          "name": "",
          "type": "uint256"
        }
      ],
      "stateMutability": "view",
      "type": "function"
    },
    {
      "inputs": [
        {
          "internalType": "string",
          "name": "_name",
          "type": "string"
        },
        {
          "internalType": "string",
          "name": "_contentIpfsHash",
          "type": "string"
        },
        {
          "internalType": "string[]",
          "name": "_listOfKeywords",
          "type": "string[]"
        },
        {
          "internalType": "uint256",
          "name": "_stakedAmount",
          "type": "uint256"
        }
      ],
      "name": "createAdvertisement",
      "outputs": [],
      "stateMutability": "payable",
      "type": "function"
    },
    {
      "inputs": [
        {
          "internalType": "string",
          "name": "_name",
          "type": "string"
        },
        {
          "internalType": "string",
          "name": "_contentIpfsHash",
          "type": "string"
        },
        {
          "internalType": "string[]",
          "name": "_listOfKeywords",
          "type": "string[]"
        },
        {
          "internalType": "string",
          "name": "uri",
          "type": "string"
        }
      ],
      "name": "createVideo",
      "outputs": [],
      "stateMutability": "nonpayable",
      "type": "function"
    },
    {
      "inputs": [
        {
          "internalType": "uint256",
          "name": "_tokenId",
          "type": "uint256"
        },
        {
          "internalType": "address",
          "name": "_tokenContract",
          "type": "address"
        },
        {
          "internalType": "uint256",
          "name": "_advertisementId",
          "type": "uint256"
        },
        {
          "internalType": "uint256",
          "name": "_videoId",
          "type": "uint256"
        }
      ],
      "name": "getAdFunds",
      "outputs": [],
      "stateMutability": "payable",
      "type": "function"
    },
    {
      "inputs": [
        {
          "internalType": "uint256",
          "name": "_advertisementId",
          "type": "uint256"
        }
      ],
      "name": "getAdvertisement",
      "outputs": [
        {
          "internalType": "uint256",
          "name": "",
          "type": "uint256"
        },
        {
          "internalType": "string",
          "name": "",
          "type": "string"
        },
        {
          "internalType": "address",
          "name": "",
          "type": "address"
        },
        {
          "internalType": "string",
          "name": "",
          "type": "string"
        },
        {
          "internalType": "string[]",
          "name": "",
          "type": "string[]"
        },
        {
          "internalType": "uint256[]",
          "name": "",
          "type": "uint256[]"
        },
        {
          "internalType": "uint256",
          "name": "",
          "type": "uint256"
        }
      ],
      "stateMutability": "view",
      "type": "function"
    },
    {
      "inputs": [
        {
          "internalType": "uint256",
          "name": "tokenId",
          "type": "uint256"
        }
      ],
      "name": "getApproved",
      "outputs": [
        {
          "internalType": "address",
          "name": "",
          "type": "address"
        }
      ],
      "stateMutability": "view",
      "type": "function"
    },
    {
      "inputs": [
        {
          "internalType": "address",
          "name": "_contentCreator",
          "type": "address"
        }
      ],
      "name": "getContentCreatorInfo",
      "outputs": [
        {
          "internalType": "address",
          "name": "",
          "type": "address"
        },
        {
          "internalType": "string",
          "name": "",
          "type": "string"
        },
        {
          "internalType": "uint256",
          "name": "",
          "type": "uint256"
        },
        {
          "internalType": "bool",
          "name": "",
          "type": "bool"
        },
        {
          "internalType": "bool",
          "name": "",
          "type": "bool"
        },
        {
          "internalType": "bool",
          "name": "",
          "type": "bool"
        }
      ],
      "stateMutability": "view",
      "type": "function"
    },
    {
      "inputs": [
        {
          "internalType": "uint256",
          "name": "_videoId",
          "type": "uint256"
        }
      ],
      "name": "getVideo",
      "outputs": [
        {
          "internalType": "uint256",
          "name": "",
          "type": "uint256"
        },
        {
          "internalType": "string",
          "name": "",
          "type": "string"
        },
        {
          "internalType": "address",
          "name": "",
          "type": "address"
        },
        {
          "internalType": "string",
          "name": "",
          "type": "string"
        },
        {
          "internalType": "string[]",
          "name": "",
          "type": "string[]"
        },
        {
          "internalType": "uint256[]",
          "name": "",
          "type": "uint256[]"
        }
      ],
      "stateMutability": "view",
      "type": "function"
    },
    {
      "inputs": [
        {
          "internalType": "uint256",
          "name": "_videoId",
          "type": "uint256"
        }
      ],
      "name": "getVideoBlockchainDetails",
      "outputs": [
        {
          "internalType": "uint256",
          "name": "",
          "type": "uint256"
        },
        {
          "internalType": "string",
          "name": "",
          "type": "string"
        },
        {
          "internalType": "uint256",
          "name": "",
          "type": "uint256"
        }
      ],
      "stateMutability": "view",
      "type": "function"
    },
    {
      "inputs": [
        {
          "internalType": "uint256",
          "name": "_videoId",
          "type": "uint256"
        }
      ],
      "name": "getVideoLikesInfo",
      "outputs": [
        {
          "internalType": "uint256",
          "name": "",
          "type": "uint256"
        },
        {
          "internalType": "address[]",
          "name": "",
          "type": "address[]"
        }
      ],
      "stateMutability": "view",
      "type": "function"
    },
    {
      "inputs": [
        {
          "internalType": "address",
          "name": "owner",
          "type": "address"
        },
        {
          "internalType": "address",
          "name": "operator",
          "type": "address"
        }
      ],
      "name": "isApprovedForAll",
      "outputs": [
        {
          "internalType": "bool",
          "name": "",
          "type": "bool"
        }
      ],
      "stateMutability": "view",
      "type": "function"
    },
    {
      "inputs": [
        {
          "internalType": "uint256",
          "name": "_videoId",
          "type": "uint256"
        }
      ],
      "name": "likeVideo",
      "outputs": [],
      "stateMutability": "nonpayable",
      "type": "function"
    },
    {
      "inputs": [
        {
          "internalType": "uint256",
          "name": "_advertisementId",
          "type": "uint256"
        },
        {
          "internalType": "uint256",
          "name": "_videoId",
          "type": "uint256"
        }
      ],
      "name": "matchAdContent",
      "outputs": [],
      "stateMutability": "nonpayable",
      "type": "function"
    },
    {
      "inputs": [],
      "name": "name",
      "outputs": [
        {
          "internalType": "string",
          "name": "",
          "type": "string"
        }
      ],
      "stateMutability": "view",
      "type": "function"
    },
    {
      "inputs": [],
      "name": "owner",
      "outputs": [
        {
          "internalType": "address",
          "name": "",
          "type": "address"
        }
      ],
      "stateMutability": "view",
      "type": "function"
    },
    {
      "inputs": [
        {
          "internalType": "uint256",
          "name": "tokenId",
          "type": "uint256"
        }
      ],
      "name": "ownerOf",
      "outputs": [
        {
          "internalType": "address",
          "name": "",
          "type": "address"
        }
      ],
      "stateMutability": "view",
      "type": "function"
    },
    {
      "inputs": [
        {
          "internalType": "string",
          "name": "_username",
          "type": "string"
        },
        {
          "internalType": "bool",
          "name": "_isAdvitiser",
          "type": "bool"
        }
      ],
      "name": "registerAccount",
      "outputs": [],
      "stateMutability": "nonpayable",
      "type": "function"
    },
    {
      "inputs": [],
      "name": "renounceOwnership",
      "outputs": [],
      "stateMutability": "nonpayable",
      "type": "function"
    },
    {
      "inputs": [
        {
          "internalType": "address",
          "name": "from",
          "type": "address"
        },
        {
          "internalType": "address",
          "name": "to",
          "type": "address"
        },
        {
          "internalType": "uint256",
          "name": "tokenId",
          "type": "uint256"
        }
      ],
      "name": "safeTransferFrom",
      "outputs": [],
      "stateMutability": "nonpayable",
      "type": "function"
    },
    {
      "inputs": [
        {
          "internalType": "address",
          "name": "from",
          "type": "address"
        },
        {
          "internalType": "address",
          "name": "to",
          "type": "address"
        },
        {
          "internalType": "uint256",
          "name": "tokenId",
          "type": "uint256"
        },
        {
          "internalType": "bytes",
          "name": "data",
          "type": "bytes"
        }
      ],
      "name": "safeTransferFrom",
      "outputs": [],
      "stateMutability": "nonpayable",
      "type": "function"
    },
    {
      "inputs": [
        {
          "internalType": "address",
          "name": "operator",
          "type": "address"
        },
        {
          "internalType": "bool",
          "name": "approved",
          "type": "bool"
        }
      ],
      "name": "setApprovalForAll",
      "outputs": [],
      "stateMutability": "nonpayable",
      "type": "function"
    },
    {
      "inputs": [
        {
          "internalType": "bytes4",
          "name": "interfaceId",
          "type": "bytes4"
        }
      ],
      "name": "supportsInterface",
      "outputs": [
        {
          "internalType": "bool",
          "name": "",
          "type": "bool"
        }
      ],
      "stateMutability": "view",
      "type": "function"
    },
    {
      "inputs": [],
      "name": "symbol",
      "outputs": [
        {
          "internalType": "string",
          "name": "",
          "type": "string"
        }
      ],
      "stateMutability": "view",
      "type": "function"
    },
    {
      "inputs": [
        {
          "internalType": "uint256",
          "name": "index",
          "type": "uint256"
        }
      ],
      "name": "tokenByIndex",
      "outputs": [
        {
          "internalType": "uint256",
          "name": "",
          "type": "uint256"
        }
      ],
      "stateMutability": "view",
      "type": "function"
    },
    {
      "inputs": [
        {
          "internalType": "address",
          "name": "owner",
          "type": "address"
        },
        {
          "internalType": "uint256",
          "name": "index",
          "type": "uint256"
        }
      ],
      "name": "tokenOfOwnerByIndex",
      "outputs": [
        {
          "internalType": "uint256",
          "name": "",
          "type": "uint256"
        }
      ],
      "stateMutability": "view",
      "type": "function"
    },
    {
      "inputs": [
        {
          "internalType": "uint256",
          "name": "tokenId",
          "type": "uint256"
        }
      ],
      "name": "tokenURI",
      "outputs": [
        {
          "internalType": "string",
          "name": "",
          "type": "string"
        }
      ],
      "stateMutability": "view",
      "type": "function"
    },
    {
      "inputs": [],
      "name": "totalSupply",
      "outputs": [
        {
          "internalType": "uint256",
          "name": "",
          "type": "uint256"
        }
      ],
      "stateMutability": "view",
      "type": "function"
    },
    {
      "inputs": [
        {
          "internalType": "address",
          "name": "from",
          "type": "address"
        },
        {
          "internalType": "address",
          "name": "to",
          "type": "address"
        },
        {
          "internalType": "uint256",
          "name": "tokenId",
          "type": "uint256"
        }
      ],
      "name": "transferFrom",
      "outputs": [],
      "stateMutability": "nonpayable",
      "type": "function"
    },
    {
      "inputs": [
        {
          "internalType": "address",
          "name": "newOwner",
          "type": "address"
        }
      ],
      "name": "transferOwnership",
      "outputs": [],
      "stateMutability": "nonpayable",
      "type": "function"
    }
  ],
  "bytecode": "0x60806040523480156200001157600080fd5b50604080518082018252601381527f56696465726920557365727320566964656f73000000000000000000000000006020808301918252835180850190945260038452622b2aab60e91b908401528151919291620000729160009162000101565b5080516200008890600190602084019062000101565b505050620000a56200009f620000ab60201b60201c565b620000af565b620001e4565b3390565b600b80546001600160a01b038381166001600160a01b0319831681179093556040519116919082907f8be0079c531659141344cd1fd0a4f28419497f9722a3daafe3b4186f6b6457e090600090a35050565b8280546200010f90620001a7565b90600052602060002090601f0160209004810192826200013357600085556200017e565b82601f106200014e57805160ff19168380011785556200017e565b828001600101855582156200017e579182015b828111156200017e57825182559160200191906001019062000161565b506200018c92915062000190565b5090565b5b808211156200018c576000815560010162000191565b600281046001821680620001bc57607f821691505b60208210811415620001de57634e487b7160e01b600052602260045260246000fd5b50919050565b613ec780620001f46000396000f3fe6080604052600436106101ed5760003560e01c80634d8449661161010d5780639a20a9be116100a0578063b79e46841161006f578063b79e4684146105d9578063b88d4fde146105f9578063c87b56dd14610619578063e985e9c514610639578063f2fde38b14610659576101ed565b80639a20a9be14610558578063a22cb46514610578578063a4ba5deb14610598578063a7bc3928146105ab576101ed565b806370a08231116100dc57806370a08231146104f9578063715018a6146105195780638da5cb5b1461052e57806395d89b4114610543576101ed565b80634d844966146104795780634f6ccce7146104995780634f90b54f146104b95780636352211e146104d9576101ed565b806318160ddd116101855780632893eca2116101545780632893eca2146103d85780632f745c591461040a5780633cae68511461042a57806342842e0e14610459576101ed565b806318160ddd146103425780631999d1461461036457806323b872dd1461039857806327260d5c146103b8576101ed565b8063095ea7b3116101c1578063095ea7b31461028c5780630b8a434d146102ac5780630d40139b146102dd5780630f990f191461030f576101ed565b806241ecf4146101f257806301ffc9a71461020757806306fdde031461023d578063081812fc1461025f575b600080fd5b610205610200366004612f7c565b610679565b005b34801561021357600080fd5b50610227610222366004612e65565b6107f1565b6040516102349190613271565b60405180910390f35b34801561024957600080fd5b50610252610804565b604051610234919061327c565b34801561026b57600080fd5b5061027f61027a366004613008565b610896565b60405161023491906131d5565b34801561029857600080fd5b506102056102a7366004612e3c565b6108bd565b3480156102b857600080fd5b506102cc6102c7366004613008565b610955565b604051610234959493929190613c44565b3480156102e957600080fd5b506102fd6102f8366004612d13565b610aa3565b60405161023496959493929190613226565b34801561031b57600080fd5b5061032f61032a366004613008565b610b9d565b6040516102349796959493929190613bcd565b34801561034e57600080fd5b50610357610e3d565b6040516102349190613b0c565b34801561037057600080fd5b5061038461037f366004613008565b610e43565b604051610234989796959493929190613c91565b3480156103a457600080fd5b506102056103b3366004612d5f565b61102a565b3480156103c457600080fd5b506102056103d3366004613008565b611062565b3480156103e457600080fd5b506103f86103f3366004613008565b611179565b60405161023496959493929190613b5e565b34801561041657600080fd5b50610357610425366004612e3c565b611410565b34801561043657600080fd5b5061044a610445366004613008565b611462565b60405161023493929190613d01565b34801561046557600080fd5b50610205610474366004612d5f565b611520565b34801561048557600080fd5b50610205610494366004612ee0565b61153b565b3480156104a557600080fd5b506103576104b4366004613008565b6116d8565b3480156104c557600080fd5b506102056104d436600461305a565b611733565b3480156104e557600080fd5b5061027f6104f4366004613008565b611779565b34801561050557600080fd5b50610357610514366004612d13565b6117ad565b34801561052557600080fd5b506102056117f1565b34801561053a57600080fd5b5061027f611805565b34801561054f57600080fd5b50610252611814565b34801561056457600080fd5b50610205610573366004612e9d565b611823565b34801561058457600080fd5b50610205610593366004612e13565b6118e3565b6102056105a6366004613020565b6118f9565b3480156105b757600080fd5b506105cb6105c6366004613008565b611add565b604051610234929190613b15565b3480156105e557600080fd5b506102fd6105f4366004612d13565b611b5c565b34801561060557600080fd5b50610205610614366004612d9a565b611c2c565b34801561062557600080fd5b50610252610634366004613008565b611c6b565b34801561064557600080fd5b50610227610654366004612d2d565b611c76565b34801561066557600080fd5b50610205610674366004612d13565b611ca4565b60008451116106a35760405162461bcd60e51b815260040161069a90613861565b60405180910390fd5b60008351116106c45760405162461bcd60e51b815260040161069a90613972565b600a825111156106e65760405162461bcd60e51b815260040161069a90613906565b600081116107065760405162461bcd60e51b815260040161069a90613581565b8034146107255760405162461bcd60e51b815260040161069a90613734565b3360009081526012602052604090206003015460ff6101009091041615156001146107625760405162461bcd60e51b815260040161069a90613aa7565b600d546000818152601060209081526040909120918255855161078d91600184019190880190612aaf565b506002810180546001600160a01b0319163317905583516107b79060038301906020870190612aaf565b5082516107cd9060048301906020860190612b33565b5060068101829055600d80549060006107e583613e34565b91905055505050505050565b60006107fc82611cde565b90505b919050565b60606000805461081390613df9565b80601f016020809104026020016040519081016040528092919081815260200182805461083f90613df9565b801561088c5780601f106108615761010080835404028352916020019161088c565b820191906000526020600020905b81548152906001019060200180831161086f57829003601f168201915b5050505050905090565b60006108a182611d03565b506000908152600460205260409020546001600160a01b031690565b60006108c882611779565b9050806001600160a01b0316836001600160a01b031614156108fc5760405162461bcd60e51b815260040161069a90613931565b806001600160a01b031661090e611d28565b6001600160a01b0316148061092a575061092a81610654611d28565b6109465760405162461bcd60e51b815260040161069a906139a9565b6109508383611d2c565b505050565b6010602052600090815260409020805460018201805491929161097790613df9565b80601f01602080910402602001604051908101604052809291908181526020018280546109a390613df9565b80156109f05780601f106109c5576101008083540402835291602001916109f0565b820191906000526020600020905b8154815290600101906020018083116109d357829003601f168201915b505050600284015460038501805494956001600160a01b03909216949193509150610a1a90613df9565b80601f0160208091040260200160405190810160405280929190818152602001828054610a4690613df9565b8015610a935780601f10610a6857610100808354040283529160200191610a93565b820191906000526020600020905b815481529060010190602001808311610a7657829003601f168201915b5050505050908060060154905085565b6001600160a01b038082166000908152601260205260408120805460028201546003830154600190930180549495606095879586958695869591909416939092909160ff808216926101008304821692620100009004909116908590610b0890613df9565b80601f0160208091040260200160405190810160405280929190818152602001828054610b3490613df9565b8015610b815780601f10610b5657610100808354040283529160200191610b81565b820191906000526020600020905b815481529060010190602001808311610b6457829003601f168201915b5050505050945095509550955095509550955091939550919395565b600081815260106020526040812080546002820154600683015460018401805460609587958795869586958995939490936001600160a01b039093169260038201926004830192600501918690610bf390613df9565b80601f0160208091040260200160405190810160405280929190818152602001828054610c1f90613df9565b8015610c6c5780601f10610c4157610100808354040283529160200191610c6c565b820191906000526020600020905b815481529060010190602001808311610c4f57829003601f168201915b50505050509550838054610c7f90613df9565b80601f0160208091040260200160405190810160405280929190818152602001828054610cab90613df9565b8015610cf85780601f10610ccd57610100808354040283529160200191610cf8565b820191906000526020600020905b815481529060010190602001808311610cdb57829003601f168201915b5050505050935082805480602002602001604051908101604052809291908181526020016000905b82821015610dcc578382906000526020600020018054610d3f90613df9565b80601f0160208091040260200160405190810160405280929190818152602001828054610d6b90613df9565b8015610db85780601f10610d8d57610100808354040283529160200191610db8565b820191906000526020600020905b815481529060010190602001808311610d9b57829003601f168201915b505050505081526020019060010190610d20565b50505050925081805480602002602001604051908101604052809291908181526020018280548015610e1d57602002820191906000526020600020905b815481526020019060010190808311610e09575b505050505091509650965096509650965096509650919395979092949650565b60085490565b60116020526000908152604090208054600182018054919291610e6590613df9565b80601f0160208091040260200160405190810160405280929190818152602001828054610e9190613df9565b8015610ede5780601f10610eb357610100808354040283529160200191610ede565b820191906000526020600020905b815481529060010190602001808311610ec157829003601f168201915b505050506002830154600384015460048501805494956001600160a01b039093169491935090610f0d90613df9565b80601f0160208091040260200160405190810160405280929190818152602001828054610f3990613df9565b8015610f865780601f10610f5b57610100808354040283529160200191610f86565b820191906000526020600020905b815481529060010190602001808311610f6957829003601f168201915b505050505090806005018054610f9b90613df9565b80601f0160208091040260200160405190810160405280929190818152602001828054610fc790613df9565b80156110145780601f10610fe957610100808354040283529160200191611014565b820191906000526020600020905b815481529060010190602001808311610ff757829003601f168201915b50505050509080600801549080600a0154905088565b61103b611035611d28565b82611d9a565b6110575760405162461bcd60e51b815260040161069a90613309565b610950838383611df9565b600081815260116020526040812090805b60098301548110156110e457336001600160a01b03168360090182815481106110ac57634e487b7160e01b600052603260045260246000fd5b6000918252602090912001546001600160a01b0316146110d457816110d081613e34565b9250505b6110dd81613e34565b9050611073565b50600982015481146111085760405162461bcd60e51b815260040161069a90613898565b60088201805490600061111a83613e34565b90915550506009820180546001810182556000918252602080832090910180546001600160a01b031916331790556002808501546001600160a01b031683526012909152604082200180549161116f83613e34565b9190505550505050565b6000818152601160205260408120805460028201546001830180546060948694869485948594929390926001600160a01b03909216916005820191600681019160079091019085906111ca90613df9565b80601f01602080910402602001604051908101604052809291908181526020018280546111f690613df9565b80156112435780601f1061121857610100808354040283529160200191611243565b820191906000526020600020905b81548152906001019060200180831161122657829003601f168201915b5050505050945082805461125690613df9565b80601f016020809104026020016040519081016040528092919081815260200182805461128290613df9565b80156112cf5780601f106112a4576101008083540402835291602001916112cf565b820191906000526020600020905b8154815290600101906020018083116112b257829003601f168201915b5050505050925081805480602002602001604051908101604052809291908181526020016000905b828210156113a357838290600052602060002001805461131690613df9565b80601f016020809104026020016040519081016040528092919081815260200182805461134290613df9565b801561138f5780601f106113645761010080835404028352916020019161138f565b820191906000526020600020905b81548152906001019060200180831161137257829003601f168201915b5050505050815260200190600101906112f7565b505050509150808054806020026020016040519081016040528092919081815260200182805480156113f457602002820191906000526020600020905b8154815260200190600101908083116113e0575b5050505050905095509550955095509550955091939550919395565b600061141b836117ad565b82106114395760405162461bcd60e51b815260040161069a906133a3565b506001600160a01b03919091166000908152600660209081526040808320938352929052205490565b60008181526011602052604081206003810154600a8201546004909201805460609385939291829061149390613df9565b80601f01602080910402602001604051908101604052809291908181526020018280546114bf90613df9565b801561150c5780601f106114e15761010080835404028352916020019161150c565b820191906000526020600020905b8154815290600101906020018083116114ef57829003601f168201915b505050505091509250925092509193909250565b61095083838360405180602001604052806000815250611c2c565b600084511161155c5760405162461bcd60e51b815260040161069a9061328f565b600083511161157d5760405162461bcd60e51b815260040161069a90613ade565b600a8251111561159f5760405162461bcd60e51b815260040161069a90613672565b60008151116115c05760405162461bcd60e51b815260040161069a906137e3565b33600090815260126020526040902060030154610100900460ff16156115f85760405162461bcd60e51b815260040161069a90613647565b6000611604600c611f36565b9050611610600c611f3a565b61161a3382611f43565b6116248183611f5d565b600e546000818152601160209081526040909120918255865161164f91600184019190890190612aaf565b506002810180546001600160a01b031916331790556003810182905582516116809060048301906020860190612aaf565b5084516116969060058301906020880190612aaf565b5083516116ac9060068301906020870190612b33565b50600060088201819055600a8201819055600e8054916116cb83613e34565b9190505550505050505050565b60006116e2610e3d565b82106117005760405162461bcd60e51b815260040161069a90613a06565b6008828154811061172157634e487b7160e01b600052603260045260246000fd5b90600052602060002001549050919050565b6000828152601060209081526040808320848452601183529083206005909101805460018181018355918552838520019490945560070180549384018155825290200155565b60008061178583611fdd565b90506001600160a01b0381166107fc5760405162461bcd60e51b815260040161069a906138cf565b60006001600160a01b0382166117d55760405162461bcd60e51b815260040161069a9061369d565b506001600160a01b031660009081526003602052604090205490565b6117f9611ff8565b6118036000612037565b565b600b546001600160a01b031690565b60606001805461081390613df9565b3360009081526012602052604090206003015462010000900460ff161561185c5760405162461bcd60e51b815260040161069a90613539565b600082511161187d5760405162461bcd60e51b815260040161069a90613356565b33600081815260126020908152604090912080546001600160a01b031916909217825583516118b491600184019190860190612aaf565b5060006002820155600301805462ff0000199215156101000261ff001990911617919091166201000017905550565b6118f56118ee611d28565b8383612089565b5050565b6000828152601060209081526040808320848452601190925282209091805b6007830154811015611977578583600701828154811061194857634e487b7160e01b600052603260045260246000fd5b90600052602060002001541415611967578161196381613e34565b9250505b61197081613e34565b9050611918565b50806119955760405162461bcd60e51b815260040161069a906132bb565b600882015460006119ad82662386f26fc10000613d97565b905080856006015410156119d35760405162461bcd60e51b815260040161069a9061380e565b808560060160008282546119e79190613db6565b909155507302101dfb77fde026414827fdc604ddaf224f09219050732d25602551487c3f3354dd80d76d54383a243358620138818a8c600080611a2e87878787878661212c565b90506000816001600160a01b0316896108fc90604051611a4d906131d2565b600060405180830381858888f193505050503d8060008114611a8b576040519150601f19603f3d011682016040523d82523d6000602084013e611a90565b606091505b5050905080611ab15760405162461bcd60e51b815260040161069a90613502565b888c600a016000828254611ac59190613d7f565b90915550505050505050505050505050505050505050565b600081815260116020908152604080832060088101546009909101805483518186028101860190945280845260609492939192839190830182828015611b4c57602002820191906000526020600020905b81546001600160a01b03168152600190910190602001808311611b2e575b5050505050905091509150915091565b601260205260009081526040902080546001820180546001600160a01b039092169291611b8890613df9565b80601f0160208091040260200160405190810160405280929190818152602001828054611bb490613df9565b8015611c015780601f10611bd657610100808354040283529160200191611c01565b820191906000526020600020905b815481529060010190602001808311611be457829003601f168201915b50505050600283015460039093015491929160ff808216925061010082048116916201000090041686565b611c3d611c37611d28565b83611d9a565b611c595760405162461bcd60e51b815260040161069a90613309565b611c658484848461215d565b50505050565b60606107fc82612190565b6001600160a01b03918216600090815260056020908152604080832093909416825291909152205460ff1690565b611cac611ff8565b6001600160a01b038116611cd25760405162461bcd60e51b815260040161069a90613440565b611cdb81612037565b50565b60006001600160e01b03198216632483248360e11b14806107fc57506107fc8261228d565b611d0c816122b2565b611cdb5760405162461bcd60e51b815260040161069a906138cf565b3390565b600081815260046020526040902080546001600160a01b0319166001600160a01b0384169081179091558190611d6182611779565b6001600160a01b03167f8c5be1e5ebec7d5bd14f71427d1e84f3dd0314c0f7b2291e5b200ac8c7c3b92560405160405180910390a45050565b600080611da683611779565b9050806001600160a01b0316846001600160a01b03161480611dcd5750611dcd8185611c76565b80611df15750836001600160a01b0316611de684610896565b6001600160a01b0316145b949350505050565b826001600160a01b0316611e0c82611779565b6001600160a01b031614611e325760405162461bcd60e51b815260040161069a90613486565b6001600160a01b038216611e585760405162461bcd60e51b815260040161069a906135cc565b611e6583838360016122cf565b826001600160a01b0316611e7882611779565b6001600160a01b031614611e9e5760405162461bcd60e51b815260040161069a90613486565b600081815260046020908152604080832080546001600160a01b03199081169091556001600160a01b0387811680865260038552838620805460001901905590871680865283862080546001019055868652600290945282852080549092168417909155905184937fddf252ad1be2c89b69c2b068fc378daa952ba7f163c4a11628f55a4df523b3ef91a46109508383836001611c65565b5490565b80546001019055565b6118f58282604051806020016040528060008152506122db565b611f66826122b2565b611f825760405162461bcd60e51b815260040161069a906136e6565b6000828152600a602090815260409091208251611fa192840190612aaf565b507ff8e1a15aba9398e019f0b49df1a4fde98ee17ae345cb5f6b5e2c27f5033e8ce782604051611fd19190613b0c565b60405180910390a15050565b6000908152600260205260409020546001600160a01b031690565b612000611d28565b6001600160a01b0316612011611805565b6001600160a01b0316146118035760405162461bcd60e51b815260040161069a906137ae565b600b80546001600160a01b038381166001600160a01b0319831681179093556040519116919082907f8be0079c531659141344cd1fd0a4f28419497f9722a3daafe3b4186f6b6457e090600090a35050565b816001600160a01b0316836001600160a01b031614156120bb5760405162461bcd60e51b815260040161069a90613610565b6001600160a01b0383811660008181526005602090815260408083209487168084529490915290819020805460ff1916851515179055517f17307eab39ab6107e8899845ad3d59bd9653f200f220920489ca2b5937696c319061211f908590613271565b60405180910390a3505050565b60008061213c878787878761230e565b8051602090910120905061215183828a612360565b98975050505050505050565b612168848484611df9565b6121748484848461238a565b611c655760405162461bcd60e51b815260040161069a906133ee565b606061219b82611d03565b6000828152600a6020526040812080546121b490613df9565b80601f01602080910402602001604051908101604052809291908181526020018280546121e090613df9565b801561222d5780601f106122025761010080835404028352916020019161222d565b820191906000526020600020905b81548152906001019060200180831161221057829003601f168201915b50505050509050600061223e6124a5565b9050805160001415612252575090506107ff565b81511561228457808260405160200161226c929190613134565b604051602081830303815290604052925050506107ff565b611df1846124b7565b60006001600160e01b0319821663780e9d6360e01b14806107fc57506107fc8261251e565b6000806122be83611fdd565b6001600160a01b0316141592915050565b611c658484848461255e565b6122e58383612611565b6122f2600084848461238a565b6109505760405162461bcd60e51b815260040161069a906133ee565b606085828686866040516020016123289493929190613d2a565b60408051601f19818403018152908290526123469291602001613163565b604051602081830303815290604052905095945050505050565b6000604051836040820152846020820152828152600b8101905060ff815360559020949350505050565b600061239e846001600160a01b0316612706565b1561249a57836001600160a01b031663150b7a026123ba611d28565b8786866040518563ffffffff1660e01b81526004016123dc94939291906131e9565b602060405180830381600087803b1580156123f657600080fd5b505af1925050508015612426575060408051601f3d908101601f1916820190925261242391810190612e81565b60015b612480573d808015612454576040519150601f19603f3d011682016040523d82523d6000602084013e612459565b606091505b5080516124785760405162461bcd60e51b815260040161069a906133ee565b805181602001fd5b6001600160e01b031916630a85bd0160e11b149050611df1565b506001949350505050565b60408051602081019091526000815290565b60606124c282611d03565b60006124cc6124a5565b905060008151116124ec5760405180602001604052806000815250612517565b806124f684612715565b604051602001612507929190613134565b6040516020818303038152906040525b9392505050565b60006001600160e01b031982166380ac58cd60e01b148061254f57506001600160e01b03198216635b5e139f60e01b145b806107fc57506107fc826127c0565b61256a84848484611c65565b600181111561258b5760405162461bcd60e51b815260040161069a90613a52565b816001600160a01b0385166125a8576125a3816127d9565b6125cb565b836001600160a01b0316856001600160a01b0316146125cb576125cb858261281d565b6001600160a01b0384166125e7576125e2816128ba565b61260a565b846001600160a01b0316846001600160a01b03161461260a5761260a8482612993565b5050505050565b6001600160a01b0382166126375760405162461bcd60e51b815260040161069a90613779565b612640816122b2565b1561265d5760405162461bcd60e51b815260040161069a906134cb565b61266b6000838360016122cf565b612674816122b2565b156126915760405162461bcd60e51b815260040161069a906134cb565b6001600160a01b038216600081815260036020908152604080832080546001019055848352600290915280822080546001600160a01b0319168417905551839291907fddf252ad1be2c89b69c2b068fc378daa952ba7f163c4a11628f55a4df523b3ef908290a46118f5600083836001611c65565b6001600160a01b03163b151590565b60606000612722836129d7565b600101905060008167ffffffffffffffff81111561275057634e487b7160e01b600052604160045260246000fd5b6040519080825280601f01601f19166020018201604052801561277a576020820181803683370190505b5090508181016020015b600019016f181899199a1a9b1b9c1cb0b131b232b360811b600a86061a8153600a85049450846127b3576127b8565b612784565b509392505050565b6001600160e01b031981166301ffc9a760e01b14919050565b600880546000838152600960205260408120829055600182018355919091527ff3f7a9fe364faab93b216da50a3214154f22a0a2b415b23a84c8169e8b636ee30155565b6000600161282a846117ad565b6128349190613db6565b600083815260076020526040902054909150808214612887576001600160a01b03841660009081526006602090815260408083208584528252808320548484528184208190558352600790915290208190555b5060009182526007602090815260408084208490556001600160a01b039094168352600681528383209183525290812055565b6008546000906128cc90600190613db6565b6000838152600960205260408120546008805493945090928490811061290257634e487b7160e01b600052603260045260246000fd5b90600052602060002001549050806008838154811061293157634e487b7160e01b600052603260045260246000fd5b600091825260208083209091019290925582815260099091526040808220849055858252812055600880548061297757634e487b7160e01b600052603160045260246000fd5b6001900381819060005260206000200160009055905550505050565b600061299e836117ad565b6001600160a01b039093166000908152600660209081526040808320868452825280832085905593825260079052919091209190915550565b60008072184f03e93ff9f4daa797ed6e38ed64bf6a1f0160401b8310612a165772184f03e93ff9f4daa797ed6e38ed64bf6a1f0160401b830492506040015b6d04ee2d6d415b85acef81000000008310612a42576d04ee2d6d415b85acef8100000000830492506020015b662386f26fc100008310612a6057662386f26fc10000830492506010015b6305f5e1008310612a78576305f5e100830492506008015b6127108310612a8c57612710830492506004015b60648310612a9e576064830492506002015b600a83106107fc5760010192915050565b828054612abb90613df9565b90600052602060002090601f016020900481019282612add5760008555612b23565b82601f10612af657805160ff1916838001178555612b23565b82800160010185558215612b23579182015b82811115612b23578251825591602001919060010190612b08565b50612b2f929150612b8c565b5090565b828054828255906000526020600020908101928215612b80579160200282015b82811115612b805782518051612b70918491602090910190612aaf565b5091602001919060010190612b53565b50612b2f929150612ba1565b5b80821115612b2f5760008155600101612b8d565b80821115612b2f576000612bb58282612bbe565b50600101612ba1565b508054612bca90613df9565b6000825580601f10612bdc5750611cdb565b601f016020900490600052602060002090810190611cdb9190612b8c565b600067ffffffffffffffff831115612c1457612c14613e65565b612c27601f8401601f1916602001613d4e565b9050828152838383011115612c3b57600080fd5b828260208301376000602084830101529392505050565b80356001600160a01b03811681146107ff57600080fd5b600082601f830112612c79578081fd5b8135602067ffffffffffffffff821115612c9557612c95613e65565b612ca28182840201613d4e565b82815281810190858301855b85811015612cd757612cc5898684358b0101612cf4565b84529284019290840190600101612cae565b5090979650505050505050565b803580151581146107ff57600080fd5b600082601f830112612d04578081fd5b61251783833560208501612bfa565b600060208284031215612d24578081fd5b61251782612c52565b60008060408385031215612d3f578081fd5b612d4883612c52565b9150612d5660208401612c52565b90509250929050565b600080600060608486031215612d73578081fd5b612d7c84612c52565b9250612d8a60208501612c52565b9150604084013590509250925092565b60008060008060808587031215612daf578081fd5b612db885612c52565b9350612dc660208601612c52565b925060408501359150606085013567ffffffffffffffff811115612de8578182fd5b8501601f81018713612df8578182fd5b612e0787823560208401612bfa565b91505092959194509250565b60008060408385031215612e25578182fd5b612e2e83612c52565b9150612d5660208401612ce4565b60008060408385031215612e4e578182fd5b612e5783612c52565b946020939093013593505050565b600060208284031215612e76578081fd5b813561251781613e7b565b600060208284031215612e92578081fd5b815161251781613e7b565b60008060408385031215612eaf578182fd5b823567ffffffffffffffff811115612ec5578283fd5b612ed185828601612cf4565b925050612d5660208401612ce4565b60008060008060808587031215612ef5578384fd5b843567ffffffffffffffff80821115612f0c578586fd5b612f1888838901612cf4565b95506020870135915080821115612f2d578485fd5b612f3988838901612cf4565b94506040870135915080821115612f4e578384fd5b612f5a88838901612c69565b93506060870135915080821115612f6f578283fd5b50612e0787828801612cf4565b60008060008060808587031215612f91578081fd5b843567ffffffffffffffff80821115612fa8578283fd5b612fb488838901612cf4565b95506020870135915080821115612fc9578283fd5b612fd588838901612cf4565b94506040870135915080821115612fea578283fd5b50612ff787828801612c69565b949793965093946060013593505050565b600060208284031215613019578081fd5b5035919050565b60008060008060808587031215613035578182fd5b8435935061304560208601612c52565b93969395505050506040820135916060013590565b6000806040838503121561306c578182fd5b50508035926020909101359150565b6000815180845260208085018081965082840281019150828601855b858110156130c15782840389526130af848351613108565b98850198935090840190600101613097565b5091979650505050505050565b6000815180845260208085019450808401835b838110156130fd578151875295820195908201906001016130e1565b509495945050505050565b60008151808452613120816020860160208601613dcd565b601f01601f19169290920160200192915050565b60008351613146818460208801613dcd565b83519083019061315a818360208801613dcd565b01949350505050565b733d60ad80600a3d3981f3363d3d373d3d3d363d7360601b8152606083901b6bffffffffffffffffffffffff191660148201526e5af43d82803e903d91602b57fd5bf360881b602882015281516000906131c4816037850160208701613dcd565b919091016037019392505050565b90565b6001600160a01b0391909116815260200190565b6001600160a01b038581168252841660208201526040810183905260806060820181905260009061321c90830184613108565b9695505050505050565b6001600160a01b038716815260c06020820181905260009061324a90830188613108565b60408301969096525092151560608401529015156080830152151560a09091015292915050565b901515815260200190565b6000602082526125176020830184613108565b6020808252601290820152716e616d6520746f20796f757220766964656f60701b604082015260600190565b6020808252602e908201527f54686973206164766572746973656d656e74206973206e6f74206c696e6b656460408201526d20746f20796f757220766964656f60901b606082015260800190565b6020808252602d908201527f4552433732313a2063616c6c6572206973206e6f7420746f6b656e206f776e6560408201526c1c881bdc88185c1c1c9bdd9959609a1b606082015260800190565b6020808252602d908201527f5468657265206d757374206265206120757365726e616d6520746f20796f757260408201526c0818591d995c9d1a5cdb595b9d609a1b606082015260800190565b6020808252602b908201527f455243373231456e756d657261626c653a206f776e657220696e646578206f7560408201526a74206f6620626f756e647360a81b606082015260800190565b60208082526032908201527f4552433732313a207472616e7366657220746f206e6f6e20455243373231526560408201527131b2b4bb32b91034b6b83632b6b2b73a32b960711b606082015260800190565b60208082526026908201527f4f776e61626c653a206e6577206f776e657220697320746865207a65726f206160408201526564647265737360d01b606082015260800190565b60208082526025908201527f4552433732313a207472616e736665722066726f6d20696e636f72726563742060408201526437bbb732b960d91b606082015260800190565b6020808252601c908201527f4552433732313a20746f6b656e20616c7265616479206d696e74656400000000604082015260600190565b6020808252601a908201527f5472616e7366657220746f2063726561746f72206661696c6564000000000000604082015260600190565b60208082526028908201527f596f75206861766520616c7265616479207265676973746572656420796f7572604082015267081858d8dbdd5b9d60c21b606082015260800190565b6020808252602b908201527f5374616b656420616d6f756e74206d757374206265206772656174657220746860408201526a0c2dc40f4cae4de408aa8960ab1b606082015260800190565b60208082526024908201527f4552433732313a207472616e7366657220746f20746865207a65726f206164646040820152637265737360e01b606082015260800190565b60208082526019908201527f4552433732313a20617070726f766520746f2063616c6c657200000000000000604082015260600190565b60208082526011908201527010bb34b232b7b99030b23b34ba34b9b2b960791b604082015260600190565b602080825260119082015270757020746f203130206b6579776f72647360781b604082015260600190565b60208082526029908201527f4552433732313a2061646472657373207a65726f206973206e6f7420612076616040820152683634b21037bbb732b960b91b606082015260800190565b6020808252602e908201527f45524337323155524953746f726167653a2055524920736574206f66206e6f6e60408201526d32bc34b9ba32b73a103a37b5b2b760911b606082015260800190565b60208082526025908201527f56616c75652073656e74203d3d20737065636966696564207374616b656420616040820152641b5bdd5b9d60da1b606082015260800190565b6020808252818101527f4552433732313a206d696e7420746f20746865207a65726f2061646472657373604082015260600190565b6020808252818101527f4f776e61626c653a2063616c6c6572206973206e6f7420746865206f776e6572604082015260600190565b60208082526011908201527055524920746f20796f757220766964656f60781b604082015260600190565b60208082526033908201527f4e6f7420656e6f7567682066756e647320696e20746865206164766572746973604082015272656d656e7420666f7220746865206c696b657360681b606082015260800190565b6020808252601c908201527f4e6f206e616d6520746f20796f75722061647665727469736d656e7400000000604082015260600190565b6020808252601f908201527f596f75206861766520616c7265616479206c696b65642074686520706f737400604082015260600190565b60208082526018908201527f4552433732313a20696e76616c696420746f6b656e2049440000000000000000604082015260600190565b602080825260119082015270557020746f203130206b6579776f72647360781b604082015260600190565b60208082526021908201527f4552433732313a20617070726f76616c20746f2063757272656e74206f776e656040820152603960f91b606082015260800190565b6020808252601d908201527f4e6f20617373657420746f20796f75722061647665727469736d656e74000000604082015260600190565b6020808252603d908201527f4552433732313a20617070726f76652063616c6c6572206973206e6f7420746f60408201527f6b656e206f776e6572206f7220617070726f76656420666f7220616c6c000000606082015260800190565b6020808252602c908201527f455243373231456e756d657261626c653a20676c6f62616c20696e646578206f60408201526b7574206f6620626f756e647360a01b606082015260800190565b60208082526035908201527f455243373231456e756d657261626c653a20636f6e7365637574697665207472604082015274185b9cd9995c9cc81b9bdd081cdd5c1c1bdc9d1959605a1b606082015260800190565b6020808252601a908201527f21766964656f7320696620636f6e74656e742063726561746f72000000000000604082015260600190565b602080825260149082015273159a59195bc81d1bc81e5bdd5c881d5c1b1bd85960621b604082015260600190565b90815260200190565b60006040820184835260206040818501528185518084526060860191508287019350845b81811015612cd75784516001600160a01b031683529383019391830191600101613b39565b600087825260c06020830152613b7760c0830188613108565b6001600160a01b03871660408401528281036060840152613b988187613108565b90508281036080840152613bac818661307b565b905082810360a0840152613bc081856130ce565b9998505050505050505050565b600088825260e06020830152613be660e0830189613108565b6001600160a01b03881660408401528281036060840152613c078188613108565b90508281036080840152613c1b818761307b565b905082810360a0840152613c2f81866130ce565b9150508260c083015298975050505050505050565b600086825260a06020830152613c5d60a0830187613108565b6001600160a01b03861660408401528281036060840152613c7e8186613108565b9150508260808301529695505050505050565b60006101008a8352806020840152613cab8184018b613108565b6001600160a01b038a1660408501526060840189905283810360808501529050613cd58188613108565b905082810360a0840152613ce98187613108565b60c0840195909552505060e001529695505050505050565b600084825260606020830152613d1a6060830185613108565b9050826040830152949350505050565b93845260208401929092526001600160a01b03166040830152606082015260800190565b604051601f8201601f1916810167ffffffffffffffff81118282101715613d7757613d77613e65565b604052919050565b60008219821115613d9257613d92613e4f565b500190565b6000816000190483118215151615613db157613db1613e4f565b500290565b600082821015613dc857613dc8613e4f565b500390565b60005b83811015613de8578181015183820152602001613dd0565b83811115611c655750506000910152565b600281046001821680613e0d57607f821691505b60208210811415613e2e57634e487b7160e01b600052602260045260246000fd5b50919050565b6000600019821415613e4857613e48613e4f565b5060010190565b634e487b7160e01b600052601160045260246000fd5b634e487b7160e01b600052604160045260246000fd5b6001600160e01b031981168114611cdb57600080fdfea26469706673582212200a0433301afbc3fe72b924c1a8d1a1a39218cb3b0f8835040aeca14780ea8e9064736f6c63430008010033",
  "linkReferences": {},
  "deployedLinkReferences": {}
}