{
  "_format": "hh-sol-artifact-1",
  "contractName": "Videre",
  "sourceName": "contracts/Videre.sol",
  "abi": [
    {
      "inputs": [],
      "stateMutability": "nonpayable",
      "type": "constructor"
    },
    {
      "anonymous": false,
      "inputs": [
        {
          "indexed": true,
          "internalType": "address",
          "name": "owner",
          "type": "address"
        },
        {
          "indexed": true,
          "internalType": "address",
          "name": "approved",
          "type": "address"
        },
        {
          "indexed": true,
          "internalType": "uint256",
          "name": "tokenId",
          "type": "uint256"
        }
      ],
      "name": "Approval",
      "type": "event"
    },
    {
      "anonymous": false,
      "inputs": [
        {
          "indexed": true,
          "internalType": "address",
          "name": "owner",
          "type": "address"
        },
        {
          "indexed": true,
          "internalType": "address",
          "name": "operator",
          "type": "address"
        },
        {
          "indexed": false,
          "internalType": "bool",
          "name": "approved",
          "type": "bool"
        }
      ],
      "name": "ApprovalForAll",
      "type": "event"
    },
    {
      "anonymous": false,
      "inputs": [
        {
          "indexed": false,
          "internalType": "uint256",
          "name": "_fromTokenId",
          "type": "uint256"
        },
        {
          "indexed": false,
          "internalType": "uint256",
          "name": "_toTokenId",
          "type": "uint256"
        }
      ],
      "name": "BatchMetadataUpdate",
      "type": "event"
    },
    {
      "anonymous": false,
      "inputs": [
        {
          "indexed": false,
          "internalType": "uint256",
          "name": "_tokenId",
          "type": "uint256"
        }
      ],
      "name": "MetadataUpdate",
      "type": "event"
    },
    {
      "anonymous": false,
      "inputs": [
        {
          "indexed": true,
          "internalType": "address",
          "name": "previousOwner",
          "type": "address"
        },
        {
          "indexed": true,
          "internalType": "address",
          "name": "newOwner",
          "type": "address"
        }
      ],
      "name": "OwnershipTransferred",
      "type": "event"
    },
    {
      "anonymous": false,
      "inputs": [
        {
          "indexed": true,
          "internalType": "address",
          "name": "from",
          "type": "address"
        },
        {
          "indexed": true,
          "internalType": "address",
          "name": "to",
          "type": "address"
        },
        {
          "indexed": true,
          "internalType": "uint256",
          "name": "tokenId",
          "type": "uint256"
        }
      ],
      "name": "Transfer",
      "type": "event"
    },
    {
      "inputs": [
        {
          "internalType": "uint256",
          "name": "",
          "type": "uint256"
        }
      ],
      "name": "_advertisements",
      "outputs": [
        {
          "internalType": "uint256",
          "name": "advertisementId",
          "type": "uint256"
        },
        {
          "internalType": "string",
          "name": "name",
          "type": "string"
        },
        {
          "internalType": "address",
          "name": "creator",
          "type": "address"
        },
        {
          "internalType": "string",
          "name": "contentIpfsHash",
          "type": "string"
        },
        {
          "internalType": "uint256",
          "name": "stakedAmount",
          "type": "uint256"
        }
      ],
      "stateMutability": "view",
      "type": "function"
    },
    {
      "inputs": [
        {
          "internalType": "address",
          "name": "",
          "type": "address"
        }
      ],
      "name": "_contentCreators",
      "outputs": [
        {
          "internalType": "address",
          "name": "walletAddress",
          "type": "address"
        },
        {
          "internalType": "string",
          "name": "username",
          "type": "string"
        },
        {
          "internalType": "uint256",
          "name": "totalVideoLikes",
          "type": "uint256"
        },
        {
          "internalType": "bool",
          "name": "isWorldcoinVerified",
          "type": "bool"
        },
        {
          "internalType": "bool",
          "name": "isAdvertiser",
          "type": "bool"
        },
        {
          "internalType": "bool",
          "name": "isRegistered",
          "type": "bool"
        }
      ],
      "stateMutability": "view",
      "type": "function"
    },
    {
      "inputs": [
        {
          "internalType": "uint256",
          "name": "",
          "type": "uint256"
        }
      ],
      "name": "_videos",
      "outputs": [
        {
          "internalType": "uint256",
          "name": "videoId",
          "type": "uint256"
        },
        {
          "internalType": "string",
          "name": "name",
          "type": "string"
        },
        {
          "internalType": "address",
          "name": "creator",
          "type": "address"
        },
        {
          "internalType": "uint256",
          "name": "contentTokenID",
          "type": "uint256"
        },
        {
          "internalType": "string",
          "name": "contentURI",
          "type": "string"
        },
        {
          "internalType": "string",
          "name": "contentIpfsHash",
          "type": "string"
        },
        {
          "internalType": "uint256",
          "name": "numOfLikes",
          "type": "uint256"
        },
        {
          "internalType": "uint256",
          "name": "amountOfEthCollected",
          "type": "uint256"
        }
      ],
      "stateMutability": "view",
      "type": "function"
    },
    {
      "inputs": [
        {
          "internalType": "address",
          "name": "to",
          "type": "address"
        },
        {
          "internalType": "uint256",
          "name": "tokenId",
          "type": "uint256"
        }
      ],
      "name": "approve",
      "outputs": [],
      "stateMutability": "nonpayable",
      "type": "function"
    },
    {
      "inputs": [
        {
          "internalType": "address",
          "name": "owner",
          "type": "address"
        }
      ],
      "name": "balanceOf",
      "outputs": [
        {
          "internalType": "uint256",
          "name": "",
          "type": "uint256"
        }
      ],
      "stateMutability": "view",
      "type": "function"
    },
    {
      "inputs": [
        {
          "internalType": "string",
          "name": "_name",
          "type": "string"
        },
        {
          "internalType": "string",
          "name": "_contentIpfsHash",
          "type": "string"
        },
        {
          "internalType": "string[]",
          "name": "_listOfKeywords",
          "type": "string[]"
        },
        {
          "internalType": "uint256",
          "name": "_stakedAmount",
          "type": "uint256"
        }
      ],
      "name": "createAdvertisement",
      "outputs": [],
      "stateMutability": "payable",
      "type": "function"
    },
    {
      "inputs": [
        {
          "internalType": "string",
          "name": "_name",
          "type": "string"
        },
        {
          "internalType": "string",
          "name": "_contentIpfsHash",
          "type": "string"
        },
        {
          "internalType": "string[]",
          "name": "_listOfKeywords",
          "type": "string[]"
        },
        {
          "internalType": "string",
          "name": "uri",
          "type": "string"
        }
      ],
      "name": "createVideo",
      "outputs": [],
      "stateMutability": "nonpayable",
      "type": "function"
    },
    {
      "inputs": [
        {
          "internalType": "uint256",
          "name": "_tokenId",
          "type": "uint256"
        },
        {
          "internalType": "address",
          "name": "_tokenContract",
          "type": "address"
        },
        {
          "internalType": "uint256",
          "name": "_advertisementId",
          "type": "uint256"
        },
        {
          "internalType": "uint256",
          "name": "_videoId",
          "type": "uint256"
        }
      ],
      "name": "getAdFunds",
      "outputs": [],
      "stateMutability": "payable",
      "type": "function"
    },
    {
      "inputs": [
        {
          "internalType": "uint256",
          "name": "_advertisementId",
          "type": "uint256"
        }
      ],
      "name": "getAdvertisement",
      "outputs": [
        {
          "internalType": "uint256",
          "name": "",
          "type": "uint256"
        },
        {
          "internalType": "string",
          "name": "",
          "type": "string"
        },
        {
          "internalType": "address",
          "name": "",
          "type": "address"
        },
        {
          "internalType": "string",
          "name": "",
          "type": "string"
        },
        {
          "internalType": "string[]",
          "name": "",
          "type": "string[]"
        },
        {
          "internalType": "uint256[]",
          "name": "",
          "type": "uint256[]"
        },
        {
          "internalType": "uint256",
          "name": "",
          "type": "uint256"
        }
      ],
      "stateMutability": "view",
      "type": "function"
    },
    {
      "inputs": [
        {
          "internalType": "uint256",
          "name": "tokenId",
          "type": "uint256"
        }
      ],
      "name": "getApproved",
      "outputs": [
        {
          "internalType": "address",
          "name": "",
          "type": "address"
        }
      ],
      "stateMutability": "view",
      "type": "function"
    },
    {
      "inputs": [
        {
          "internalType": "address",
          "name": "_contentCreator",
          "type": "address"
        }
      ],
      "name": "getContentCreatorInfo",
      "outputs": [
        {
          "internalType": "address",
          "name": "",
          "type": "address"
        },
        {
          "internalType": "string",
          "name": "",
          "type": "string"
        },
        {
          "internalType": "uint256",
          "name": "",
          "type": "uint256"
        },
        {
          "internalType": "bool",
          "name": "",
          "type": "bool"
        },
        {
          "internalType": "bool",
          "name": "",
          "type": "bool"
        },
        {
          "internalType": "bool",
          "name": "",
          "type": "bool"
        }
      ],
      "stateMutability": "view",
      "type": "function"
    },
    {
      "inputs": [],
      "name": "getNumbers",
      "outputs": [
        {
          "internalType": "uint256",
          "name": "",
          "type": "uint256"
        },
        {
          "internalType": "uint256",
          "name": "",
          "type": "uint256"
        },
        {
          "internalType": "uint256",
          "name": "",
          "type": "uint256"
        }
      ],
      "stateMutability": "view",
      "type": "function"
    },
    {
      "inputs": [
        {
          "internalType": "uint256",
          "name": "_videoId",
          "type": "uint256"
        }
      ],
      "name": "getVideo",
      "outputs": [
        {
          "internalType": "uint256",
          "name": "",
          "type": "uint256"
        },
        {
          "internalType": "string",
          "name": "",
          "type": "string"
        },
        {
          "internalType": "address",
          "name": "",
          "type": "address"
        },
        {
          "internalType": "string",
          "name": "",
          "type": "string"
        },
        {
          "internalType": "string[]",
          "name": "",
          "type": "string[]"
        },
        {
          "internalType": "uint256[]",
          "name": "",
          "type": "uint256[]"
        }
      ],
      "stateMutability": "view",
      "type": "function"
    },
    {
      "inputs": [
        {
          "internalType": "uint256",
          "name": "_videoId",
          "type": "uint256"
        }
      ],
      "name": "getVideoBlockchainDetails",
      "outputs": [
        {
          "internalType": "uint256",
          "name": "",
          "type": "uint256"
        },
        {
          "internalType": "string",
          "name": "",
          "type": "string"
        },
        {
          "internalType": "uint256",
          "name": "",
          "type": "uint256"
        }
      ],
      "stateMutability": "view",
      "type": "function"
    },
    {
      "inputs": [
        {
          "internalType": "uint256",
          "name": "_videoId",
          "type": "uint256"
        }
      ],
      "name": "getVideoLikesInfo",
      "outputs": [
        {
          "internalType": "uint256",
          "name": "",
          "type": "uint256"
        },
        {
          "internalType": "address[]",
          "name": "",
          "type": "address[]"
        }
      ],
      "stateMutability": "view",
      "type": "function"
    },
    {
      "inputs": [
        {
          "internalType": "address",
          "name": "owner",
          "type": "address"
        },
        {
          "internalType": "address",
          "name": "operator",
          "type": "address"
        }
      ],
      "name": "isApprovedForAll",
      "outputs": [
        {
          "internalType": "bool",
          "name": "",
          "type": "bool"
        }
      ],
      "stateMutability": "view",
      "type": "function"
    },
    {
      "inputs": [
        {
          "internalType": "uint256",
          "name": "_videoId",
          "type": "uint256"
        }
      ],
      "name": "likeVideo",
      "outputs": [],
      "stateMutability": "nonpayable",
      "type": "function"
    },
    {
      "inputs": [
        {
          "internalType": "uint256",
          "name": "_advertisementId",
          "type": "uint256"
        },
        {
          "internalType": "uint256",
          "name": "_videoId",
          "type": "uint256"
        }
      ],
      "name": "matchAdContent",
      "outputs": [],
      "stateMutability": "nonpayable",
      "type": "function"
    },
    {
      "inputs": [],
      "name": "name",
      "outputs": [
        {
          "internalType": "string",
          "name": "",
          "type": "string"
        }
      ],
      "stateMutability": "view",
      "type": "function"
    },
    {
      "inputs": [],
      "name": "owner",
      "outputs": [
        {
          "internalType": "address",
          "name": "",
          "type": "address"
        }
      ],
      "stateMutability": "view",
      "type": "function"
    },
    {
      "inputs": [
        {
          "internalType": "uint256",
          "name": "tokenId",
          "type": "uint256"
        }
      ],
      "name": "ownerOf",
      "outputs": [
        {
          "internalType": "address",
          "name": "",
          "type": "address"
        }
      ],
      "stateMutability": "view",
      "type": "function"
    },
    {
      "inputs": [
        {
          "internalType": "string",
          "name": "_username",
          "type": "string"
        },
        {
          "internalType": "bool",
          "name": "_isAdvitiser",
          "type": "bool"
        }
      ],
      "name": "registerAccount",
      "outputs": [],
      "stateMutability": "nonpayable",
      "type": "function"
    },
    {
      "inputs": [],
      "name": "renounceOwnership",
      "outputs": [],
      "stateMutability": "nonpayable",
      "type": "function"
    },
    {
      "inputs": [
        {
          "internalType": "address",
          "name": "from",
          "type": "address"
        },
        {
          "internalType": "address",
          "name": "to",
          "type": "address"
        },
        {
          "internalType": "uint256",
          "name": "tokenId",
          "type": "uint256"
        }
      ],
      "name": "safeTransferFrom",
      "outputs": [],
      "stateMutability": "nonpayable",
      "type": "function"
    },
    {
      "inputs": [
        {
          "internalType": "address",
          "name": "from",
          "type": "address"
        },
        {
          "internalType": "address",
          "name": "to",
          "type": "address"
        },
        {
          "internalType": "uint256",
          "name": "tokenId",
          "type": "uint256"
        },
        {
          "internalType": "bytes",
          "name": "data",
          "type": "bytes"
        }
      ],
      "name": "safeTransferFrom",
      "outputs": [],
      "stateMutability": "nonpayable",
      "type": "function"
    },
    {
      "inputs": [
        {
          "internalType": "address",
          "name": "operator",
          "type": "address"
        },
        {
          "internalType": "bool",
          "name": "approved",
          "type": "bool"
        }
      ],
      "name": "setApprovalForAll",
      "outputs": [],
      "stateMutability": "nonpayable",
      "type": "function"
    },
    {
      "inputs": [
        {
          "internalType": "bytes4",
          "name": "interfaceId",
          "type": "bytes4"
        }
      ],
      "name": "supportsInterface",
      "outputs": [
        {
          "internalType": "bool",
          "name": "",
          "type": "bool"
        }
      ],
      "stateMutability": "view",
      "type": "function"
    },
    {
      "inputs": [],
      "name": "symbol",
      "outputs": [
        {
          "internalType": "string",
          "name": "",
          "type": "string"
        }
      ],
      "stateMutability": "view",
      "type": "function"
    },
    {
      "inputs": [
        {
          "internalType": "uint256",
          "name": "index",
          "type": "uint256"
        }
      ],
      "name": "tokenByIndex",
      "outputs": [
        {
          "internalType": "uint256",
          "name": "",
          "type": "uint256"
        }
      ],
      "stateMutability": "view",
      "type": "function"
    },
    {
      "inputs": [
        {
          "internalType": "address",
          "name": "owner",
          "type": "address"
        },
        {
          "internalType": "uint256",
          "name": "index",
          "type": "uint256"
        }
      ],
      "name": "tokenOfOwnerByIndex",
      "outputs": [
        {
          "internalType": "uint256",
          "name": "",
          "type": "uint256"
        }
      ],
      "stateMutability": "view",
      "type": "function"
    },
    {
      "inputs": [
        {
          "internalType": "uint256",
          "name": "tokenId",
          "type": "uint256"
        }
      ],
      "name": "tokenURI",
      "outputs": [
        {
          "internalType": "string",
          "name": "",
          "type": "string"
        }
      ],
      "stateMutability": "view",
      "type": "function"
    },
    {
      "inputs": [],
      "name": "totalSupply",
      "outputs": [
        {
          "internalType": "uint256",
          "name": "",
          "type": "uint256"
        }
      ],
      "stateMutability": "view",
      "type": "function"
    },
    {
      "inputs": [
        {
          "internalType": "address",
          "name": "from",
          "type": "address"
        },
        {
          "internalType": "address",
          "name": "to",
          "type": "address"
        },
        {
          "internalType": "uint256",
          "name": "tokenId",
          "type": "uint256"
        }
      ],
      "name": "transferFrom",
      "outputs": [],
      "stateMutability": "nonpayable",
      "type": "function"
    },
    {
      "inputs": [
        {
          "internalType": "address",
          "name": "newOwner",
          "type": "address"
        }
      ],
      "name": "transferOwnership",
      "outputs": [],
      "stateMutability": "nonpayable",
      "type": "function"
    }
  ],
  "bytecode": "0x60806040523480156200001157600080fd5b50604080518082018252601381527f56696465726920557365727320566964656f73000000000000000000000000006020808301918252835180850190945260038452622b2aab60e91b908401528151919291620000729160009162000101565b5080516200008890600190602084019062000101565b505050620000a56200009f620000ab60201b60201c565b620000af565b620001e4565b3390565b600b80546001600160a01b038381166001600160a01b0319831681179093556040519116919082907f8be0079c531659141344cd1fd0a4f28419497f9722a3daafe3b4186f6b6457e090600090a35050565b8280546200010f90620001a7565b90600052602060002090601f0160209004810192826200013357600085556200017e565b82601f106200014e57805160ff19168380011785556200017e565b828001600101855582156200017e579182015b828111156200017e57825182559160200191906001019062000161565b506200018c92915062000190565b5090565b5b808211156200018c576000815560010162000191565b600281046001821680620001bc57607f821691505b60208210811415620001de57634e487b7160e01b600052602260045260246000fd5b50919050565b613f1080620001f46000396000f3fe6080604052600436106101f85760003560e01c80634f6ccce71161010d5780639a20a9be116100a0578063b79e46841161006f578063b79e468414610608578063b88d4fde14610628578063c87b56dd14610648578063e985e9c514610668578063f2fde38b14610688576101f8565b80639a20a9be14610587578063a22cb465146105a7578063a4ba5deb146105c7578063a7bc3928146105da576101f8565b8063715018a6116100dc578063715018a61461052457806389f915f6146105395780638da5cb5b1461055d57806395d89b4114610572576101f8565b80634f6ccce7146104a45780634f90b54f146104c45780636352211e146104e457806370a0823114610504576101f8565b806318160ddd116101905780632893eca21161015f5780632893eca2146103e35780632f745c59146104155780633cae68511461043557806342842e0e146104645780634d84496614610484576101f8565b806318160ddd1461034d5780631999d1461461036f57806323b872dd146103a357806327260d5c146103c3576101f8565b8063095ea7b3116101cc578063095ea7b3146102975780630b8a434d146102b75780630d40139b146102e85780630f990f191461031a576101f8565b806241ecf4146101fd57806301ffc9a71461021257806306fdde0314610248578063081812fc1461026a575b600080fd5b61021061020b366004612fb9565b6106a8565b005b34801561021e57600080fd5b5061023261022d366004612ea2565b610820565b60405161023f91906132a4565b60405180910390f35b34801561025457600080fd5b5061025d610833565b60405161023f91906132af565b34801561027657600080fd5b5061028a610285366004613045565b6108c5565b60405161023f9190613208565b3480156102a357600080fd5b506102106102b2366004612e79565b6108ec565b3480156102c357600080fd5b506102d76102d2366004613045565b610984565b60405161023f959493929190613c77565b3480156102f457600080fd5b50610308610303366004612d50565b610ad2565b60405161023f96959493929190613259565b34801561032657600080fd5b5061033a610335366004613045565b610bcc565b60405161023f9796959493929190613c00565b34801561035957600080fd5b50610362610e6c565b60405161023f9190613b3f565b34801561037b57600080fd5b5061038f61038a366004613045565b610e72565b60405161023f989796959493929190613cc4565b3480156103af57600080fd5b506102106103be366004612d9c565b611059565b3480156103cf57600080fd5b506102106103de366004613045565b611091565b3480156103ef57600080fd5b506104036103fe366004613045565b6111a8565b60405161023f96959493929190613b91565b34801561042157600080fd5b50610362610430366004612e79565b61143f565b34801561044157600080fd5b50610455610450366004613045565b611491565b60405161023f93929190613d34565b34801561047057600080fd5b5061021061047f366004612d9c565b61154f565b34801561049057600080fd5b5061021061049f366004612f1d565b61156a565b3480156104b057600080fd5b506103626104bf366004613045565b611707565b3480156104d057600080fd5b506102106104df366004613097565b611762565b3480156104f057600080fd5b5061028a6104ff366004613045565b6117a8565b34801561051057600080fd5b5061036261051f366004612d50565b6117dc565b34801561053057600080fd5b50610210611820565b34801561054557600080fd5b5061054e611834565b60405161023f93929190613d81565b34801561056957600080fd5b5061028a611842565b34801561057e57600080fd5b5061025d611851565b34801561059357600080fd5b506102106105a2366004612eda565b611860565b3480156105b357600080fd5b506102106105c2366004612e50565b611920565b6102106105d536600461305d565b611936565b3480156105e657600080fd5b506105fa6105f5366004613045565b611b1a565b60405161023f929190613b48565b34801561061457600080fd5b50610308610623366004612d50565b611b99565b34801561063457600080fd5b50610210610643366004612dd7565b611c69565b34801561065457600080fd5b5061025d610663366004613045565b611ca8565b34801561067457600080fd5b50610232610683366004612d6a565b611cb3565b34801561069457600080fd5b506102106106a3366004612d50565b611ce1565b60008451116106d25760405162461bcd60e51b81526004016106c990613894565b60405180910390fd5b60008351116106f35760405162461bcd60e51b81526004016106c9906139a5565b600a825111156107155760405162461bcd60e51b81526004016106c990613939565b600081116107355760405162461bcd60e51b81526004016106c9906135b4565b8034146107545760405162461bcd60e51b81526004016106c990613767565b3360009081526012602052604090206003015460ff6101009091041615156001146107915760405162461bcd60e51b81526004016106c990613ada565b600d54600081815260106020908152604090912091825585516107bc91600184019190880190612aec565b506002810180546001600160a01b0319163317905583516107e69060038301906020870190612aec565b5082516107fc9060048301906020860190612b70565b5060068101829055600d805490600061081483613e7d565b91905055505050505050565b600061082b82611d1b565b90505b919050565b60606000805461084290613e42565b80601f016020809104026020016040519081016040528092919081815260200182805461086e90613e42565b80156108bb5780601f10610890576101008083540402835291602001916108bb565b820191906000526020600020905b81548152906001019060200180831161089e57829003601f168201915b5050505050905090565b60006108d082611d40565b506000908152600460205260409020546001600160a01b031690565b60006108f7826117a8565b9050806001600160a01b0316836001600160a01b0316141561092b5760405162461bcd60e51b81526004016106c990613964565b806001600160a01b031661093d611d65565b6001600160a01b03161480610959575061095981610683611d65565b6109755760405162461bcd60e51b81526004016106c9906139dc565b61097f8383611d69565b505050565b601060205260009081526040902080546001820180549192916109a690613e42565b80601f01602080910402602001604051908101604052809291908181526020018280546109d290613e42565b8015610a1f5780601f106109f457610100808354040283529160200191610a1f565b820191906000526020600020905b815481529060010190602001808311610a0257829003601f168201915b505050600284015460038501805494956001600160a01b03909216949193509150610a4990613e42565b80601f0160208091040260200160405190810160405280929190818152602001828054610a7590613e42565b8015610ac25780601f10610a9757610100808354040283529160200191610ac2565b820191906000526020600020905b815481529060010190602001808311610aa557829003601f168201915b5050505050908060060154905085565b6001600160a01b038082166000908152601260205260408120805460028201546003830154600190930180549495606095879586958695869591909416939092909160ff808216926101008304821692620100009004909116908590610b3790613e42565b80601f0160208091040260200160405190810160405280929190818152602001828054610b6390613e42565b8015610bb05780601f10610b8557610100808354040283529160200191610bb0565b820191906000526020600020905b815481529060010190602001808311610b9357829003601f168201915b5050505050945095509550955095509550955091939550919395565b600081815260106020526040812080546002820154600683015460018401805460609587958795869586958995939490936001600160a01b039093169260038201926004830192600501918690610c2290613e42565b80601f0160208091040260200160405190810160405280929190818152602001828054610c4e90613e42565b8015610c9b5780601f10610c7057610100808354040283529160200191610c9b565b820191906000526020600020905b815481529060010190602001808311610c7e57829003601f168201915b50505050509550838054610cae90613e42565b80601f0160208091040260200160405190810160405280929190818152602001828054610cda90613e42565b8015610d275780601f10610cfc57610100808354040283529160200191610d27565b820191906000526020600020905b815481529060010190602001808311610d0a57829003601f168201915b5050505050935082805480602002602001604051908101604052809291908181526020016000905b82821015610dfb578382906000526020600020018054610d6e90613e42565b80601f0160208091040260200160405190810160405280929190818152602001828054610d9a90613e42565b8015610de75780601f10610dbc57610100808354040283529160200191610de7565b820191906000526020600020905b815481529060010190602001808311610dca57829003601f168201915b505050505081526020019060010190610d4f565b50505050925081805480602002602001604051908101604052809291908181526020018280548015610e4c57602002820191906000526020600020905b815481526020019060010190808311610e38575b505050505091509650965096509650965096509650919395979092949650565b60085490565b60116020526000908152604090208054600182018054919291610e9490613e42565b80601f0160208091040260200160405190810160405280929190818152602001828054610ec090613e42565b8015610f0d5780601f10610ee257610100808354040283529160200191610f0d565b820191906000526020600020905b815481529060010190602001808311610ef057829003601f168201915b505050506002830154600384015460048501805494956001600160a01b039093169491935090610f3c90613e42565b80601f0160208091040260200160405190810160405280929190818152602001828054610f6890613e42565b8015610fb55780601f10610f8a57610100808354040283529160200191610fb5565b820191906000526020600020905b815481529060010190602001808311610f9857829003601f168201915b505050505090806005018054610fca90613e42565b80601f0160208091040260200160405190810160405280929190818152602001828054610ff690613e42565b80156110435780601f1061101857610100808354040283529160200191611043565b820191906000526020600020905b81548152906001019060200180831161102657829003601f168201915b50505050509080600801549080600a0154905088565b61106a611064611d65565b82611dd7565b6110865760405162461bcd60e51b81526004016106c99061333c565b61097f838383611e36565b600081815260116020526040812090805b600983015481101561111357336001600160a01b03168360090182815481106110db57634e487b7160e01b600052603260045260246000fd5b6000918252602090912001546001600160a01b03161461110357816110ff81613e7d565b9250505b61110c81613e7d565b90506110a2565b50600982015481146111375760405162461bcd60e51b81526004016106c9906138cb565b60088201805490600061114983613e7d565b90915550506009820180546001810182556000918252602080832090910180546001600160a01b031916331790556002808501546001600160a01b031683526012909152604082200180549161119e83613e7d565b9190505550505050565b6000818152601160205260408120805460028201546001830180546060948694869485948594929390926001600160a01b03909216916005820191600681019160079091019085906111f990613e42565b80601f016020809104026020016040519081016040528092919081815260200182805461122590613e42565b80156112725780601f1061124757610100808354040283529160200191611272565b820191906000526020600020905b81548152906001019060200180831161125557829003601f168201915b5050505050945082805461128590613e42565b80601f01602080910402602001604051908101604052809291908181526020018280546112b190613e42565b80156112fe5780601f106112d3576101008083540402835291602001916112fe565b820191906000526020600020905b8154815290600101906020018083116112e157829003601f168201915b5050505050925081805480602002602001604051908101604052809291908181526020016000905b828210156113d257838290600052602060002001805461134590613e42565b80601f016020809104026020016040519081016040528092919081815260200182805461137190613e42565b80156113be5780601f10611393576101008083540402835291602001916113be565b820191906000526020600020905b8154815290600101906020018083116113a157829003601f168201915b505050505081526020019060010190611326565b5050505091508080548060200260200160405190810160405280929190818152602001828054801561142357602002820191906000526020600020905b81548152602001906001019080831161140f575b5050505050905095509550955095509550955091939550919395565b600061144a836117dc565b82106114685760405162461bcd60e51b81526004016106c9906133d6565b506001600160a01b03919091166000908152600660209081526040808320938352929052205490565b60008181526011602052604081206003810154600a820154600490920180546060938593929182906114c290613e42565b80601f01602080910402602001604051908101604052809291908181526020018280546114ee90613e42565b801561153b5780601f106115105761010080835404028352916020019161153b565b820191906000526020600020905b81548152906001019060200180831161151e57829003601f168201915b505050505091509250925092509193909250565b61097f83838360405180602001604052806000815250611c69565b600084511161158b5760405162461bcd60e51b81526004016106c9906132c2565b60008351116115ac5760405162461bcd60e51b81526004016106c990613b11565b600a825111156115ce5760405162461bcd60e51b81526004016106c9906136a5565b60008151116115ef5760405162461bcd60e51b81526004016106c990613816565b33600090815260126020526040902060030154610100900460ff16156116275760405162461bcd60e51b81526004016106c99061367a565b6000611633600c611f73565b905061163f600c611f77565b6116493382611f80565b6116538183611f9a565b600e546000818152601160209081526040909120918255865161167e91600184019190890190612aec565b506002810180546001600160a01b031916331790556003810182905582516116af9060048301906020860190612aec565b5084516116c59060058301906020880190612aec565b5083516116db9060068301906020870190612b70565b50600060088201819055600a8201819055600e8054916116fa83613e7d565b9190505550505050505050565b6000611711610e6c565b821061172f5760405162461bcd60e51b81526004016106c990613a39565b6008828154811061175057634e487b7160e01b600052603260045260246000fd5b90600052602060002001549050919050565b6000828152601060209081526040808320848452601183529083206005909101805460018181018355918552838520019490945560070180549384018155825290200155565b6000806117b48361201a565b90506001600160a01b03811661082b5760405162461bcd60e51b81526004016106c990613902565b60006001600160a01b0382166118045760405162461bcd60e51b81526004016106c9906136d0565b506001600160a01b031660009081526003602052604090205490565b611828612035565b6118326000612074565b565b600d54600e54600f54909192565b600b546001600160a01b031690565b60606001805461084290613e42565b3360009081526012602052604090206003015462010000900460ff16156118995760405162461bcd60e51b81526004016106c99061356c565b60008251116118ba5760405162461bcd60e51b81526004016106c990613389565b33600081815260126020908152604090912080546001600160a01b031916909217825583516118f191600184019190860190612aec565b5060006002820155600301805462ff0000199215156101000261ff001990911617919091166201000017905550565b61193261192b611d65565b83836120c6565b5050565b6000828152601060209081526040808320848452601190925282209091805b60078301548110156119b4578583600701828154811061198557634e487b7160e01b600052603260045260246000fd5b906000526020600020015414156119a457816119a081613e7d565b9250505b6119ad81613e7d565b9050611955565b50806119d25760405162461bcd60e51b81526004016106c9906132ee565b600882015460006119ea82662386f26fc10000613de0565b90508085600601541015611a105760405162461bcd60e51b81526004016106c990613841565b80856006016000828254611a249190613dff565b909155507302101dfb77fde026414827fdc604ddaf224f09219050732d25602551487c3f3354dd80d76d54383a243358620138818a8c600080611a6b878787878786612169565b90506000816001600160a01b0316896108fc90604051611a8a90613205565b600060405180830381858888f193505050503d8060008114611ac8576040519150601f19603f3d011682016040523d82523d6000602084013e611acd565b606091505b5050905080611aee5760405162461bcd60e51b81526004016106c990613535565b888c600a016000828254611b029190613dc8565b90915550505050505050505050505050505050505050565b600081815260116020908152604080832060088101546009909101805483518186028101860190945280845260609492939192839190830182828015611b8957602002820191906000526020600020905b81546001600160a01b03168152600190910190602001808311611b6b575b5050505050905091509150915091565b601260205260009081526040902080546001820180546001600160a01b039092169291611bc590613e42565b80601f0160208091040260200160405190810160405280929190818152602001828054611bf190613e42565b8015611c3e5780601f10611c1357610100808354040283529160200191611c3e565b820191906000526020600020905b815481529060010190602001808311611c2157829003601f168201915b50505050600283015460039093015491929160ff808216925061010082048116916201000090041686565b611c7a611c74611d65565b83611dd7565b611c965760405162461bcd60e51b81526004016106c99061333c565b611ca28484848461219a565b50505050565b606061082b826121cd565b6001600160a01b03918216600090815260056020908152604080832093909416825291909152205460ff1690565b611ce9612035565b6001600160a01b038116611d0f5760405162461bcd60e51b81526004016106c990613473565b611d1881612074565b50565b60006001600160e01b03198216632483248360e11b148061082b575061082b826122ca565b611d49816122ef565b611d185760405162461bcd60e51b81526004016106c990613902565b3390565b600081815260046020526040902080546001600160a01b0319166001600160a01b0384169081179091558190611d9e826117a8565b6001600160a01b03167f8c5be1e5ebec7d5bd14f71427d1e84f3dd0314c0f7b2291e5b200ac8c7c3b92560405160405180910390a45050565b600080611de3836117a8565b9050806001600160a01b0316846001600160a01b03161480611e0a5750611e0a8185611cb3565b80611e2e5750836001600160a01b0316611e23846108c5565b6001600160a01b0316145b949350505050565b826001600160a01b0316611e49826117a8565b6001600160a01b031614611e6f5760405162461bcd60e51b81526004016106c9906134b9565b6001600160a01b038216611e955760405162461bcd60e51b81526004016106c9906135ff565b611ea2838383600161230c565b826001600160a01b0316611eb5826117a8565b6001600160a01b031614611edb5760405162461bcd60e51b81526004016106c9906134b9565b600081815260046020908152604080832080546001600160a01b03199081169091556001600160a01b0387811680865260038552838620805460001901905590871680865283862080546001019055868652600290945282852080549092168417909155905184937fddf252ad1be2c89b69c2b068fc378daa952ba7f163c4a11628f55a4df523b3ef91a461097f8383836001611ca2565b5490565b80546001019055565b611932828260405180602001604052806000815250612318565b611fa3826122ef565b611fbf5760405162461bcd60e51b81526004016106c990613719565b6000828152600a602090815260409091208251611fde92840190612aec565b507ff8e1a15aba9398e019f0b49df1a4fde98ee17ae345cb5f6b5e2c27f5033e8ce78260405161200e9190613b3f565b60405180910390a15050565b6000908152600260205260409020546001600160a01b031690565b61203d611d65565b6001600160a01b031661204e611842565b6001600160a01b0316146118325760405162461bcd60e51b81526004016106c9906137e1565b600b80546001600160a01b038381166001600160a01b0319831681179093556040519116919082907f8be0079c531659141344cd1fd0a4f28419497f9722a3daafe3b4186f6b6457e090600090a35050565b816001600160a01b0316836001600160a01b031614156120f85760405162461bcd60e51b81526004016106c990613643565b6001600160a01b0383811660008181526005602090815260408083209487168084529490915290819020805460ff1916851515179055517f17307eab39ab6107e8899845ad3d59bd9653f200f220920489ca2b5937696c319061215c9085906132a4565b60405180910390a3505050565b600080612179878787878761234b565b8051602090910120905061218e83828a61239d565b98975050505050505050565b6121a5848484611e36565b6121b1848484846123c7565b611ca25760405162461bcd60e51b81526004016106c990613421565b60606121d882611d40565b6000828152600a6020526040812080546121f190613e42565b80601f016020809104026020016040519081016040528092919081815260200182805461221d90613e42565b801561226a5780601f1061223f5761010080835404028352916020019161226a565b820191906000526020600020905b81548152906001019060200180831161224d57829003601f168201915b50505050509050600061227b6124e2565b905080516000141561228f5750905061082e565b8151156122c15780826040516020016122a9929190613167565b6040516020818303038152906040529250505061082e565b611e2e846124f4565b60006001600160e01b0319821663780e9d6360e01b148061082b575061082b8261255b565b6000806122fb8361201a565b6001600160a01b0316141592915050565b611ca28484848461259b565b612322838361264e565b61232f60008484846123c7565b61097f5760405162461bcd60e51b81526004016106c990613421565b606085828686866040516020016123659493929190613d5d565b60408051601f19818403018152908290526123839291602001613196565b604051602081830303815290604052905095945050505050565b6000604051836040820152846020820152828152600b8101905060ff815360559020949350505050565b60006123db846001600160a01b0316612743565b156124d757836001600160a01b031663150b7a026123f7611d65565b8786866040518563ffffffff1660e01b8152600401612419949392919061321c565b602060405180830381600087803b15801561243357600080fd5b505af1925050508015612463575060408051601f3d908101601f1916820190925261246091810190612ebe565b60015b6124bd573d808015612491576040519150601f19603f3d011682016040523d82523d6000602084013e612496565b606091505b5080516124b55760405162461bcd60e51b81526004016106c990613421565b805181602001fd5b6001600160e01b031916630a85bd0160e11b149050611e2e565b506001949350505050565b60408051602081019091526000815290565b60606124ff82611d40565b60006125096124e2565b905060008151116125295760405180602001604052806000815250612554565b8061253384612752565b604051602001612544929190613167565b6040516020818303038152906040525b9392505050565b60006001600160e01b031982166380ac58cd60e01b148061258c57506001600160e01b03198216635b5e139f60e01b145b8061082b575061082b826127fd565b6125a784848484611ca2565b60018111156125c85760405162461bcd60e51b81526004016106c990613a85565b816001600160a01b0385166125e5576125e081612816565b612608565b836001600160a01b0316856001600160a01b03161461260857612608858261285a565b6001600160a01b0384166126245761261f816128f7565b612647565b846001600160a01b0316846001600160a01b0316146126475761264784826129d0565b5050505050565b6001600160a01b0382166126745760405162461bcd60e51b81526004016106c9906137ac565b61267d816122ef565b1561269a5760405162461bcd60e51b81526004016106c9906134fe565b6126a860008383600161230c565b6126b1816122ef565b156126ce5760405162461bcd60e51b81526004016106c9906134fe565b6001600160a01b038216600081815260036020908152604080832080546001019055848352600290915280822080546001600160a01b0319168417905551839291907fddf252ad1be2c89b69c2b068fc378daa952ba7f163c4a11628f55a4df523b3ef908290a4611932600083836001611ca2565b6001600160a01b03163b151590565b6060600061275f83612a14565b600101905060008167ffffffffffffffff81111561278d57634e487b7160e01b600052604160045260246000fd5b6040519080825280601f01601f1916602001820160405280156127b7576020820181803683370190505b5090508181016020015b600019016f181899199a1a9b1b9c1cb0b131b232b360811b600a86061a8153600a85049450846127f0576127f5565b6127c1565b509392505050565b6001600160e01b031981166301ffc9a760e01b14919050565b600880546000838152600960205260408120829055600182018355919091527ff3f7a9fe364faab93b216da50a3214154f22a0a2b415b23a84c8169e8b636ee30155565b60006001612867846117dc565b6128719190613dff565b6000838152600760205260409020549091508082146128c4576001600160a01b03841660009081526006602090815260408083208584528252808320548484528184208190558352600790915290208190555b5060009182526007602090815260408084208490556001600160a01b039094168352600681528383209183525290812055565b60085460009061290990600190613dff565b6000838152600960205260408120546008805493945090928490811061293f57634e487b7160e01b600052603260045260246000fd5b90600052602060002001549050806008838154811061296e57634e487b7160e01b600052603260045260246000fd5b60009182526020808320909101929092558281526009909152604080822084905585825281205560088054806129b457634e487b7160e01b600052603160045260246000fd5b6001900381819060005260206000200160009055905550505050565b60006129db836117dc565b6001600160a01b039093166000908152600660209081526040808320868452825280832085905593825260079052919091209190915550565b60008072184f03e93ff9f4daa797ed6e38ed64bf6a1f0160401b8310612a535772184f03e93ff9f4daa797ed6e38ed64bf6a1f0160401b830492506040015b6d04ee2d6d415b85acef81000000008310612a7f576d04ee2d6d415b85acef8100000000830492506020015b662386f26fc100008310612a9d57662386f26fc10000830492506010015b6305f5e1008310612ab5576305f5e100830492506008015b6127108310612ac957612710830492506004015b60648310612adb576064830492506002015b600a831061082b5760010192915050565b828054612af890613e42565b90600052602060002090601f016020900481019282612b1a5760008555612b60565b82601f10612b3357805160ff1916838001178555612b60565b82800160010185558215612b60579182015b82811115612b60578251825591602001919060010190612b45565b50612b6c929150612bc9565b5090565b828054828255906000526020600020908101928215612bbd579160200282015b82811115612bbd5782518051612bad918491602090910190612aec565b5091602001919060010190612b90565b50612b6c929150612bde565b5b80821115612b6c5760008155600101612bca565b80821115612b6c576000612bf28282612bfb565b50600101612bde565b508054612c0790613e42565b6000825580601f10612c195750611d18565b601f016020900490600052602060002090810190611d189190612bc9565b600067ffffffffffffffff831115612c5157612c51613eae565b612c64601f8401601f1916602001613d97565b9050828152838383011115612c7857600080fd5b828260208301376000602084830101529392505050565b80356001600160a01b038116811461082e57600080fd5b600082601f830112612cb6578081fd5b8135602067ffffffffffffffff821115612cd257612cd2613eae565b612cdf8182840201613d97565b82815281810190858301855b85811015612d1457612d02898684358b0101612d31565b84529284019290840190600101612ceb565b5090979650505050505050565b8035801515811461082e57600080fd5b600082601f830112612d41578081fd5b61255483833560208501612c37565b600060208284031215612d61578081fd5b61255482612c8f565b60008060408385031215612d7c578081fd5b612d8583612c8f565b9150612d9360208401612c8f565b90509250929050565b600080600060608486031215612db0578081fd5b612db984612c8f565b9250612dc760208501612c8f565b9150604084013590509250925092565b60008060008060808587031215612dec578081fd5b612df585612c8f565b9350612e0360208601612c8f565b925060408501359150606085013567ffffffffffffffff811115612e25578182fd5b8501601f81018713612e35578182fd5b612e4487823560208401612c37565b91505092959194509250565b60008060408385031215612e62578182fd5b612e6b83612c8f565b9150612d9360208401612d21565b60008060408385031215612e8b578182fd5b612e9483612c8f565b946020939093013593505050565b600060208284031215612eb3578081fd5b813561255481613ec4565b600060208284031215612ecf578081fd5b815161255481613ec4565b60008060408385031215612eec578182fd5b823567ffffffffffffffff811115612f02578283fd5b612f0e85828601612d31565b925050612d9360208401612d21565b60008060008060808587031215612f32578384fd5b843567ffffffffffffffff80821115612f49578586fd5b612f5588838901612d31565b95506020870135915080821115612f6a578485fd5b612f7688838901612d31565b94506040870135915080821115612f8b578384fd5b612f9788838901612ca6565b93506060870135915080821115612fac578283fd5b50612e4487828801612d31565b60008060008060808587031215612fce578081fd5b843567ffffffffffffffff80821115612fe5578283fd5b612ff188838901612d31565b95506020870135915080821115613006578283fd5b61301288838901612d31565b94506040870135915080821115613027578283fd5b5061303487828801612ca6565b949793965093946060013593505050565b600060208284031215613056578081fd5b5035919050565b60008060008060808587031215613072578182fd5b8435935061308260208601612c8f565b93969395505050506040820135916060013590565b600080604083850312156130a9578182fd5b50508035926020909101359150565b60008282518085526020808601955080818302840101818601855b84811015612d1457601f198684030189526130ef83835161313b565b988401989250908301906001016130d3565b6000815180845260208085019450808401835b8381101561313057815187529582019590820190600101613114565b509495945050505050565b60008151808452613153816020860160208601613e16565b601f01601f19169290920160200192915050565b60008351613179818460208801613e16565b83519083019061318d818360208801613e16565b01949350505050565b733d60ad80600a3d3981f3363d3d373d3d3d363d7360601b8152606083901b6bffffffffffffffffffffffff191660148201526e5af43d82803e903d91602b57fd5bf360881b602882015281516000906131f7816037850160208701613e16565b919091016037019392505050565b90565b6001600160a01b0391909116815260200190565b6001600160a01b038581168252841660208201526040810183905260806060820181905260009061324f9083018461313b565b9695505050505050565b6001600160a01b038716815260c06020820181905260009061327d9083018861313b565b60408301969096525092151560608401529015156080830152151560a09091015292915050565b901515815260200190565b600060208252612554602083018461313b565b6020808252601290820152716e616d6520746f20796f757220766964656f60701b604082015260600190565b6020808252602e908201527f54686973206164766572746973656d656e74206973206e6f74206c696e6b656460408201526d20746f20796f757220766964656f60901b606082015260800190565b6020808252602d908201527f4552433732313a2063616c6c6572206973206e6f7420746f6b656e206f776e6560408201526c1c881bdc88185c1c1c9bdd9959609a1b606082015260800190565b6020808252602d908201527f5468657265206d757374206265206120757365726e616d6520746f20796f757260408201526c0818591d995c9d1a5cdb595b9d609a1b606082015260800190565b6020808252602b908201527f455243373231456e756d657261626c653a206f776e657220696e646578206f7560408201526a74206f6620626f756e647360a81b606082015260800190565b60208082526032908201527f4552433732313a207472616e7366657220746f206e6f6e20455243373231526560408201527131b2b4bb32b91034b6b83632b6b2b73a32b960711b606082015260800190565b60208082526026908201527f4f776e61626c653a206e6577206f776e657220697320746865207a65726f206160408201526564647265737360d01b606082015260800190565b60208082526025908201527f4552433732313a207472616e736665722066726f6d20696e636f72726563742060408201526437bbb732b960d91b606082015260800190565b6020808252601c908201527f4552433732313a20746f6b656e20616c7265616479206d696e74656400000000604082015260600190565b6020808252601a908201527f5472616e7366657220746f2063726561746f72206661696c6564000000000000604082015260600190565b60208082526028908201527f596f75206861766520616c7265616479207265676973746572656420796f7572604082015267081858d8dbdd5b9d60c21b606082015260800190565b6020808252602b908201527f5374616b656420616d6f756e74206d757374206265206772656174657220746860408201526a0c2dc40f4cae4de408aa8960ab1b606082015260800190565b60208082526024908201527f4552433732313a207472616e7366657220746f20746865207a65726f206164646040820152637265737360e01b606082015260800190565b60208082526019908201527f4552433732313a20617070726f766520746f2063616c6c657200000000000000604082015260600190565b60208082526011908201527010bb34b232b7b99030b23b34ba34b9b2b960791b604082015260600190565b602080825260119082015270757020746f203130206b6579776f72647360781b604082015260600190565b60208082526029908201527f4552433732313a2061646472657373207a65726f206973206e6f7420612076616040820152683634b21037bbb732b960b91b606082015260800190565b6020808252602e908201527f45524337323155524953746f726167653a2055524920736574206f66206e6f6e60408201526d32bc34b9ba32b73a103a37b5b2b760911b606082015260800190565b60208082526025908201527f56616c75652073656e74203d3d20737065636966696564207374616b656420616040820152641b5bdd5b9d60da1b606082015260800190565b6020808252818101527f4552433732313a206d696e7420746f20746865207a65726f2061646472657373604082015260600190565b6020808252818101527f4f776e61626c653a2063616c6c6572206973206e6f7420746865206f776e6572604082015260600190565b60208082526011908201527055524920746f20796f757220766964656f60781b604082015260600190565b60208082526033908201527f4e6f7420656e6f7567682066756e647320696e20746865206164766572746973604082015272656d656e7420666f7220746865206c696b657360681b606082015260800190565b6020808252601c908201527f4e6f206e616d6520746f20796f75722061647665727469736d656e7400000000604082015260600190565b6020808252601f908201527f596f75206861766520616c7265616479206c696b65642074686520706f737400604082015260600190565b60208082526018908201527f4552433732313a20696e76616c696420746f6b656e2049440000000000000000604082015260600190565b602080825260119082015270557020746f203130206b6579776f72647360781b604082015260600190565b60208082526021908201527f4552433732313a20617070726f76616c20746f2063757272656e74206f776e656040820152603960f91b606082015260800190565b6020808252601d908201527f4e6f20617373657420746f20796f75722061647665727469736d656e74000000604082015260600190565b6020808252603d908201527f4552433732313a20617070726f76652063616c6c6572206973206e6f7420746f60408201527f6b656e206f776e6572206f7220617070726f76656420666f7220616c6c000000606082015260800190565b6020808252602c908201527f455243373231456e756d657261626c653a20676c6f62616c20696e646578206f60408201526b7574206f6620626f756e647360a01b606082015260800190565b60208082526035908201527f455243373231456e756d657261626c653a20636f6e7365637574697665207472604082015274185b9cd9995c9cc81b9bdd081cdd5c1c1bdc9d1959605a1b606082015260800190565b6020808252601a908201527f21766964656f7320696620636f6e74656e742063726561746f72000000000000604082015260600190565b602080825260149082015273159a59195bc81d1bc81e5bdd5c881d5c1b1bd85960621b604082015260600190565b90815260200190565b60006040820184835260206040818501528185518084526060860191508287019350845b81811015612d145784516001600160a01b031683529383019391830191600101613b6c565b600087825260c06020830152613baa60c083018861313b565b6001600160a01b03871660408401528281036060840152613bcb818761313b565b90508281036080840152613bdf81866130b8565b905082810360a0840152613bf38185613101565b9998505050505050505050565b600088825260e06020830152613c1960e083018961313b565b6001600160a01b03881660408401528281036060840152613c3a818861313b565b90508281036080840152613c4e81876130b8565b905082810360a0840152613c628186613101565b9150508260c083015298975050505050505050565b600086825260a06020830152613c9060a083018761313b565b6001600160a01b03861660408401528281036060840152613cb1818661313b565b9150508260808301529695505050505050565b60006101008a8352806020840152613cde8184018b61313b565b6001600160a01b038a1660408501526060840189905283810360808501529050613d08818861313b565b905082810360a0840152613d1c818761313b565b60c0840195909552505060e001529695505050505050565b600084825260606020830152613d4d606083018561313b565b9050826040830152949350505050565b93845260208401929092526001600160a01b03166040830152606082015260800190565b9283526020830191909152604082015260600190565b604051601f8201601f1916810167ffffffffffffffff81118282101715613dc057613dc0613eae565b604052919050565b60008219821115613ddb57613ddb613e98565b500190565b6000816000190483118215151615613dfa57613dfa613e98565b500290565b600082821015613e1157613e11613e98565b500390565b60005b83811015613e31578181015183820152602001613e19565b83811115611ca25750506000910152565b600281046001821680613e5657607f821691505b60208210811415613e7757634e487b7160e01b600052602260045260246000fd5b50919050565b6000600019821415613e9157613e91613e98565b5060010190565b634e487b7160e01b600052601160045260246000fd5b634e487b7160e01b600052604160045260246000fd5b6001600160e01b031981168114611d1857600080fdfea2646970667358221220518dbd9a9af8fc5ed034111d687c5127c757d7b0625494f1cf295c489c4e371064736f6c63430008010033",
  "linkReferences": {},
  "deployedLinkReferences": {}
}